S01100002E2E2F436F6D7052756E2E73313994
S32D0000C000000000208DF90000E9FC0000E9FC0000E9FC0000E9FC0000E9FC0000000000000000000000000000F3
S32D0000C02800000000E9FC0000E9FC000000000000E9FC0000E9FC0000E9FC0000E9FC0000E9FC0000E9FC0000C2
S32D0000C050E9FC0000E9FC0000E9FC0000E9FC0000E9FC0000E9FC0000E9FC0000E9FC0000E9FC0000E9FC0000D0
S32D0000C078E9FC0000E9FC0000E9FC0000E9FC0000E9FC0000E9FC0000E9FC0000E9FC0000E9FC0000E9FC0000A8
S32D0000C0A0E9FC0000E9FC0000E9FC0000E9FC0000E9FC0000E9FC0000E9FC0000E9FC0000E9FC0000E9FC000080
S32D0000C0C8E9FC0000E9FC0000E9FC0000E9FC0000E9FC0000E9FC0000E9FC0000E9FC0000E9FC0000E9FC000058
S32D0000C0F0E9FC0000259A0100E9FC0000E9FC0000E9FC0000E9FC0000E9FC0000E9FC0000E9FC0000E9FC000055
S32D0000C118E9FC0000E9FC0000E9FC0000E9FC0000E9FC0000E9FC0000E9FC0000E9FC0000E9FC0000E9FC000007
S32D0000C140E9FC0000E9FC0000E9FC0000E9FC0000D5630100E9FC0000E9FC0000E9FC0000E9FC0000E9FC00008B
S32D0000C168E9FC0000E9FC0000E9FC0000E9FC0000E9FC0000E9FC0000E9FC0000E9FC0000E9FC0000E9FC0000B7
S32D0000C190E9FC0000E9FC0000E9FC000055590100A95701007D58010039FD00002D5A0100E9FC0000E9FC0000C4
S32D0000C1B8E9FC0000E9FC0000E9FC0000E9FC0000E9FC0000E9FC0000E9FC0000E9FC0000E9FC0000E9FC000067
S32D0000C41081F0004102E000BF83F0004330B54FEA41044FEA430594EA050F08BF90EA020F1FBF54EA000C55EAC6
S32D0000C438020C7FEA645C7FEA655C00F0E2804FEA5454D4EB5555B8BF6D420CDD2C4480EA020281EA030382EA0F
S32D0000C460000083EA010180EA020281EA0303362D88BF30BD11F0004F4FEA01314FF4801C4CEA113102D0404263
S32D0000C48861EB410113F0004F4FEA03334CEA133302D0524263EB430394EA050F00F0A780A4F10104D5F1200E8A
S32D0000C4B00DDB02FA0EFC22FA05F2801841F1000103FA0EF2801843FA05F359410EE0A5F120050EF1200E012A2D
S32D0000C4D803FA0EFC28BF4CF0020C43FA05F3C01851EBE37101F0004507D54FF0000EDCF1000C7EEB00006EEB67
S32D0000C5000101B1F5801F1BD3B1F5001F0CD349085FEA30004FEA3C0C04F101044FEA445212F5800F80F09A8000
S32D0000C528BCF1004F08BF5FEA500C50F1000041EB045141EA050130BD5FEA4C0C404141EB010111F4801FA4F114
S32D0000C5500104E9D191F0000F04BF01460020B1FA81F308BF2033A3F10B03B3F120020CDA0C3208DD02F1140C87
S32D0000C578C2F10C0201FA0CF021FA02F10CE002F11402D8BFC2F1200C01FA02F120FA0CFCDCBF41EA0C019040B1
S32D0000C5A0E41AA2BF01EB0451294330BD6FEA04041F3C1CDA0C340EDC04F11404C4F1200220FA04F001FA02F3B6
S32D0000C5C840EA030021FA04F345EA030130BDC4F10C04C4F1200220FA02F001FA04F340EA0300294630BD21FAA8
S32D0000C5F004F0294630BD94F0000F83F4801306BF81F480110134013D4EE77FEA645C18BF7FEA655C29D094EA1C
S32D0000C618050F08BF90EA020F05D054EA000C04BF1946104630BD91EA030F1EBF0021002030BD5FEA545C05D1A3
S32D0000C6404000494128BF41F0004130BD14F580043CBF01F5801130BD01F0004545F0FE4141F470014FF0000031
S32D0000C66830BD7FEA645C1ABF194610467FEA655C1CBF0B46024650EA013406BF52EA033591EA030F41F40021D7
S32D0000C69030BD00BF90F0000F04BF0021704730B54FF4806404F132044FF000054FF0000150E700BF90F0000F66
S32D0000C6B804BF0021704730B54FF4806404F1320410F0004548BF40424FF000013EE700BF42004FEAE2014FEAF9
S32D0000C6E031014FEA02701FBF12F07F4393F07F4F81F06051704792F0000F14BF93F07F4F704730B54FF460741B
S32D0000C70801F0004521F0004120E700BF50EA010208BF704730B54FF000050AE050EA010208BF704730B511F046
S32D0000C730004502D5404261EB41014FF4806404F132045FEA915C3FF4DCAE4FF003025FEADC0C18BF03325FEAA0
S32D0000C758DC0C18BF033202EBDC02C2F1200300FA03FC20FA02F001FA03FE40EA0E0021FA02F11444C1E600BF19
S32D0000C78070B54FF0FF0C4CF4E06C1CEA11541DBF1CEA135594EA0C0F95EA0C0F00F0DEF82C4481EA030621EAF3
S32D0000C7A84C5123EA4C5350EA013518BF52EA033541F4801143F4801338D0A0FB02CE4FF00005E1FB02E506F05F
S32D0000C7D00042E0FB03E54FF00006E1FB03569CF0000F18BF4EF0010EA4F1FF04B6F5007F64F5407404D25FEA0F
S32D0000C7F84E0E6D4146EB060642EAC62141EA55514FEAC52040EA5E504FEACE2EB4F1FD0C88BFBCF5E06F1ED8D2
S32D0000C820BEF1004F08BF5FEA500E50F1000041EB045170BD06F0004646EA010140EA020081EA0301B4EB5C0487
S32D0000C848C2BFD4EB0C0541EA045170BD41F480114FF0000E013C00F3AB8014F1360FDEBF002001F0004170BDF0
S32D0000C870C4F10004203C35DA0C341BDC04F11404C4F1200500FA05F320FA04F001FA05F240EA020001F0004207
S32D0000C89821F0004110EBD37021FA04F642EB06015EEA430E08BF20EAD37070BDC4F10C04C4F1200500FA04F32F
S32D0000C8C020FA05F001FA04F240EA020001F0004110EBD37041F100015EEA430E08BF20EAD37070BDC4F12005C7
S32D0000C8E800FA05F24EEA020E20FA04F301FA05F243EA020321FA04F001F0004121FA04F220EA020000EBD37028
S32D0000C9105EEA430E08BF20EAD37070BD94F0000F0FD101F00046400041EB010111F4801F08BF013CF7D041EA6D
S32D0000C938060195F0000F18BF704703F00046520043EB030313F4801F08BF013DF7D043EA0603704794EA0C0FF1
S32D0000C9600CEA135518BF95EA0C0F0CD050EA410618BF52EA4306D1D181EA030101F000414FF0000070BD50EA38
S32D0000C988410606BF1046194652EA430619D094EA0C0F02D150EA013613D195EA0C0F05D152EA03361CBF10467B
S32D0000C9B019460AD181EA030101F0004141F0FE4141F470014FF0000070BD41F0FE4141F4780170BD70B54FF04D
S32D0000C9D8FF0C4CF4E06C1CEA11541DBF1CEA135594EA0C0F95EA0C0F00F0A7F8A4EB050481EA030E52EA03359B
S32D0000CA004FEA013100F088804FEA03334FF0805545EA131343EA12634FEA022245EA111545EA10654FEA002676
S32D0000CA280EF000419D4208BF964244F1FD0404F5407402D25B084FEA3202B61A65EB03055B084FEA32024FF461
S32D0000CA5080104FF4002CB6EB020E75EB030E22BFB61A754640EA0C005B084FEA3202B6EB020E75EB030E22BF22
S32D0000CA78B61A754640EA5C005B084FEA3202B6EB020E75EB030E22BFB61A754640EA9C005B084FEA3202B6EBEA
S32D0000CAA0020E75EB030E22BFB61A754640EADC0055EA060E18D04FEA051545EA16754FEA06164FEAC30343EAAC
S32D0000CAC852734FEAC2025FEA1C1CC0D111F4801F0BD141EA00014FF000004FF0004CB6E711F4801F04BF0143AE
S32D0000CAF00020B4F1FD0C88BFBCF5E06F3FF6AFAEB5EB030C04BFB6EB020C5FEA500C50F1000041EB045170BDBC
S32D0000CB180EF0004E4EEA113114EB5C04C2BFD4EB0C0541EA045170BD41F480114FF0000E013C90E645EA060EC3
S32D0000CB408DE60CEA135594EA0C0F08BF95EA0C0F3FF43BAF94EA0C0F0AD150EA01347FF434AF95EA0C0F7FF499
S32D0000CB6825AF104619462CE795EA0C0F06D152EA03353FF4FDAE1046194622E750EA410618BF52EA43067FF432
S32D0000CB90C5AE50EA41047FF40DAF52EA43057FF4EBAE12E74FF0FF3C06E000BF4FF0010C02E000BF4FF0010C75
S32D0000CBB84DF804CD4FEA410C7FEA6C5C4FEA430C18BF7FEA6C5C1BD001B050EA410C0CBF52EA430C91EA030FEC
S32D0000CBE002BF90EA020F0020704710F1000F91EA030F58BF994208BF90422CBFD8176FEAE37040F0010070476E
S32D0000CC084FEA410C7FEA6C5C02D150EA013C07D14FEA430C7FEA6C5CD6D152EA033CD3D05DF8040B704700BFCD
S32D0000CC308446104662468C461946634600E000BF01B5FFF7B7FF002848BF10F1000F01BD4DF808EDFFF7F4FF13
S32D0000CC580CBF012000205DF808FB00BF4DF808EDFFF7EAFF34BF012000205DF808FB00BF4DF808EDFFF7E0FF18
S32D0000CC8094BF012000205DF808FB00BF4DF808EDFFF7CEFF94BF012000205DF808FB00BF4DF808EDFFF7C4FF40
S32D0000CCA834BF012000205DF808FB00BF4FEA410212F5001215D211D56FF47873B3EB625212D94FEAC12343F0D6
S32D0000CCD0004343EA505311F0004F23FA02F018BF404270474FF00000704750EA013005D111F0004008BF6FF016
S32D0000CCF8004070474FF00000704700BF4A0011D212F5001211D20DD56FF47873B3EB62520ED44FEAC12343F085
S32D0000CD20004343EA505323FA02F070474FF00000704750EA013002D14FF0FF3070474FF0000070474FEA410241
S32D0000CD48B2F1E04324BFB3F5001CDCF1FE5C0DD901F0004C4FEAC0024CEA5070B2F1004F40EB830008BF20F09E
S32D0000CD700100704711F0804F21D113F13872BCBF01F00040704741F480114FEA5252C2F11802C2F1200C10FAB1
S32D0000CD980CF320FA02F018BF40F001004FEAC1234FEAD32303FA0CFC40EA0C0023FA02F34FEA4303CCE77FEA26
S32D0000CDC0625307D150EA01331EBF4FF0FE4040F44000704701F0004040F0FE4040F40000704700BF80F00040CC
S32D0000CDE802E000BF81F0004142001FBF5FEA410392EA030F7FEA226C7FEA236C6AD04FEA1262D2EB1363C1BF06
S32D0000CE10D218414048404140B8BF5B42192B88BF704710F0004F40F4000020F07F4018BF404211F0004F41F4FA
S32D0000CE38000121F07F4118BF494292EA030F3FD0A2F1010241FA03FC10EB0C00C3F1200301FA03F100F000432B
S32D0000CE6002D5494260EB4000B0F5000F13D3B0F1807F06D340084FEA310102F10102FE2A51D2B1F1004F40EB94
S32D0000CE88C25008BF20F0010040EA03007047490040EB000010F4000FA2F10102EDD1B0FA80FCACF1080CB2EB5F
S32D0000CEB00C0200FA0CF0AABF00EBC25052421843BCBFD0401843704792F0000F81F4000106BF80F400000132EB
S32D0000CED8013BB5E74FEA41037FEA226C18BF7FEA236C21D092EA030F04D092F0000F08BF0846704790EA010FD7
S32D0000CF001CBF0020704712F07F4F04D1400028BF40F00040704712F100723CBF00F50000704700F0004343F0DC
S32D0000CF28FE4040F4000070477FEA226216BF08467FEA23630146420206BF5FEA412390EA010F40F480007047C1
S32D0000CF504FF0000304E000BF10F0004348BF40425FEA000C08BF704743F0964301464FF000001CE050EA010264
S32D0000CF7808BF70474FF000030AE000BF50EA010208BF704711F0004302D5404261EB41015FEA010C02BF84465B
S32D0000CFA00146002043F0B64308BFA3F18053A3F50003BCFA8CF2083AA3EBC25310DB01FA02FC634400FA02FC6B
S32D0000CFC8C2F12002BCF1004F20FA02F243EB020008BF20F00100704702F1200201FA02FCC2F1200250EA4C0034
S32D0000CFF021FA02F243EB020008BF20EADC7070474FF0FF0C1CEAD0521EBF1CEAD15392EA0C0F93EA0C0F6FD019
S32D0000D0181A4480EA010C400218BF5FEA41211ED04FF0006343EA501043EA5111A0FB01310CF00040B1F5000FE7
S32D0000D0403EBF490041EAD3715B0040EA010062F17F02FD2A1DD8B3F1004F40EBC25008BF20F00100704790F058
S32D0000D068000F0CF0004C08BF49024CEA502040EA51207F3AC2BFD2F1FF0340EAC250704740F400004FF0000388
S32D0000D090013A5DDC12F1190FDCBF00F000407047C2F10002410021FA02F1C2F1200200FA02FC5FEA310040F1D5
S32D0000D0B8000053EA4C0308BF20EADC70704792F0000F00F0004C02BF400010F4000F013AF9D040EA0C0093F04C
S32D0000D0E0000F01F0004C02BF490011F4000F013BF9D041EA0C018FE70CEAD15392EA0C0F18BF93EA0C0F0AD00B
S32D0000D10830F0004C18BF31F0004CD8D180EA010000F00040704790F0000F17BF90F0004F084691F0000F91F0BB
S32D0000D130004F14D092EA0C0F01D142020FD193EA0C0F03D14B0218BF084608D180EA010000F0004040F0FE4051
S32D0000D15840F40000704740F0FE4040F4400070474FF0FF0C1CEAD0521EBF1CEAD15392EA0C0F93EA0C0F69D044
S32D0000D180A2EB030280EA010C49024FEA402037D04FF0805343EA111143EA10130CF000408B4238BF5B0042F14E
S32D0000D1A87D024FF4000C8B4224BF5B1A40EA0C00B3EB510F24BFA3EB510340EA5C00B3EB910F24BFA3EB9103A4
S32D0000D1D040EA9C00B3EBD10F24BFA3EBD10340EADC001B0118BF5FEA1C1CE0D1FD2A3FF650AF8B4240EBC25018
S32D0000D1F808BF20F0010070470CF0004C4CEA50207F32C2BFD2F1FF0340EAC250704740F400004FF00003013AF1
S32D0000D22037E792F0000F00F0004C02BF400010F4000F013AF9D040EA0C0093F0000F01F0004C02BF490011F4C9
S32D0000D248000F013BF9D041EA0C0195E70CEAD15392EA0C0F08D142027FF47DAF93EA0C0F7FF470AF084676E7AE
S32D0000D27093EA0C0F04D14B023FF44CAF08466EE730F0004C18BF31F0004CCAD130F000427FF45CAF31F0004376
S32D0000D2987FF43CAF5FE700BF4FF0FF3C06E000BF4FF0010C02E000BF4FF0010C4DF804CD4FEA40024FEA41039F
S32D0000D2C07FEA226C18BF7FEA236C11D001B052EA530C18BF90EA010F58BFB2EB030088BFC81738BF6FEAE1706E
S32D0000D2E818BF40F0010070477FEA226C02D15FEA402C05D17FEA236CE4D15FEA412CE1D05DF8040B704700BF16
S32D0000D310844608466146FFE70FB5FFF7C9FF002848BF10F1000F0FBD4DF808EDFFF7F4FF0CBF012000205DF839
S32D0000D33808FB00BF4DF808EDFFF7EAFF34BF012000205DF808FB00BF4DF808EDFFF7E0FF94BF012000205DF8A9
S32D0000D36008FB00BF4DF808EDFFF7D2FF94BF012000205DF808FB00BF4DF808EDFFF7C8FF34BF012000205DF8B1
S32D0000D38808FB00BF4FEA4002B2F1FE4F0FD34FF09E03B3EB12620DD94FEA002343F0004310F0004F23FA02F060
S32D0000D3B018BF404270474FF00000704712F1610F01D1420205D110F0004008BF6FF0004070474FF00000704797
S32D0000D3D890B59DB000AF41F2B040C1F6FF700DF09BF807F051FE02460B4610461946FFF7A5FC0346BB6441F247
S32D0000D4004840C1F6FF704FF0000109F087FF41F24840C1F6FF704FF0010109F0DDFF41F24840C1F6FF704FF07A
S32D0000D428000109F0C1FF41F2D040C1F6FF700DF07DFE41F2D040C1F6FF704CF27461C0F201010DF061FF07F1B6
S32D0000D45004031846B6494FF0000201F0E7FC4FF000004FF07E5101F5E00107F0E5FD41F23010C1F6FF70AF49A7
S32D0000D47802F03AFDA6A1D1E9000107F0D9FD07F104031846AA49AA4A01F0D6FD4FF000004FF0804101F5A011A0
S32D0000D4A007F0CAFD00F0A8FD4FF000004FF07E5101F5E00107F0C0FD07F1040318469F499F4A01F0E9FC4FF0F0
S32D0000D4C8010387F86F309D4B7B644FF00003BB664DE041F22010C1F6FF7008F045FB034641F24840C1F6FF70D2
S32D0000D4F019460AF02FFA41F22010C1F6FF7008F037FB03464FF0010214461846796CFFF715FF0346002B02D160
S32D0000D5184FF000031C46E3B2002B03D04FF0000387F86F304FF000004FF07E5101F5A00107F07EFDB86EFFF7DC
S32D0000D540B9F802460B46104619464FF000024FF07E5303F5A003FEF761FF02460B4610461946FFF7A7FB03464E
S32D0000D568BB6641F24840C1F6FF7009F0FDFE97F86F30002B05D0BB6E1D2B02DC4FF0010301E04FF00003002B91
S32D0000D590A3D141F24840C1F6FF704CF28061C0F201010AF0C3F941F22410C1F6FF704FF0010108F019FD41F280
S32D0000D5B8B040C1F6FF700DF0A3FC03463B6441F2B040C1F6FF700DF0ABFC0346FB63594BBB6307F104031846F8
S32D0000D5E05949BA6B01F058FCF86BFFF775F802460B46104619464AA3D3E90023FEF70CFF02460B4610461946E3
S32D0000D608FFF79CFB0346184600F0AAFF41F24410C1F6FF704FF4FA7109F0DCF841F24410C1F6FF7040F6FC011F
S32D0000D63009F0F2F841F24410C1F6FF703C4909F00BF907F1040318464049BA6B01F0C8FD3F4801F069F807F128
S32D0000D658040318463D49BA6B01F01AFC07F1040318463B49BA6B01F08BFE01F099FA07F1040318463749384A2A
S32D0000D68001F00AFC07F1040318463649344A01F0D7FC386CFFF720F802460B461046194621A3D3E90023FEF7CF
S32D0000D6A8B7FE02460B4610461946FFF747FB0346184600F0B5FC07F1040318462149BA6B01F05EFE264801F039
S32D0000D6D02BF807F1040318462449BA6B01F0DCFB214801F021F807F1040318462049BA6B01F04AFE1F4801F063
S32D0000D6F817F807F1040318461D49BA6B01F0C8FB1C4800F06DFD4FF05A037B6648E000BF7B14AE47E17A843F95
S32D0000D7206666666666661840CDCCCCCCCCCC234000000000000048C20000A0410000F041000020423333333F9D
S32D0000D7489A99B94000000C4200006643295C9A410000E64200008040000070410000404000004C420000184130
S32D0000D77000000743000034436666A63F0000E040786EFFF7E9FB034641F24410C1F6FF70194609F061F89EA153
S32D0000D798D1E9000107F04CFC7B6E03F1FF337B667B6E532BD4BF00230123DBB2002BE3D197A1D1E9000107F0E2
S32D0000D7C03BFC41F24410C1F6FF70994909F044F841F24840C1F6FF704CF28C61C0F201010AF0A4F84FF00503A3
S32D0000D7E83B6616E08CA1D1E9000107F021FC3B6EC3F150031846FFF7ABFB034641F24410C1F6FF70194609F088
S32D0000D81023F83B6E03F105033B663B6E4F2BCCBF00230123DBB2002BE0D107F1040318468049BA6B01F004FCEF
S32D0000D83807F1040318467E49BA6B01F0A1FD7D4800F06EFF07F1040318467B49BA6B01F0F3FB07F10403184646
S32D0000D8607549BA6B01F0BCFC764800F05DFF07F1040318467449BA6B01F0E2FB68A1D1E9000107F0D9FB386CC4
S32D0000D8887049FFF7B1FA0346184600F0A9FC6B4800F046FF4FF00003FB6563E04FF000004FF07E5101F5A0012B
S32D0000D8B007F0C2FB41F24840C1F6FF7009F058FD41F22010C1F6FF7008F052F9034641F24840C1F6FF70194612
S32D0000D8D80AF03CF841F22010C1F6FF7008F044F903461846FEF7F4FE02460B464FF001010C46104619464AA3DA
S32D0000D900D3E90023FFF7CCF90346002B02D14FF000031C46E3B2002B14D04FF00103FB6541F24840C1F6FF704C
S32D0000D9284CF29861C0F2010109F0FCFF07F1040318464549454A01F07FFB13E04FF00203FB6541F24840C1F604
S32D0000D950FF704CF2A061C0F2010109F0E7FF07F1040318463A493B4A01F096FAFB6D002B14BF00230123DBB248
S32D0000D978002B93D141F22010C1F6FF7008F0F4F8034641F24840C1F6FF70194609F0DEFF07F1040318462E4952
S32D0000D9A02C4A01F0F1FC2D4800F0BEFE07F1040318462B49274A01F06FFA19A1D1E9000107F03AFB4FF0000365
S32D0000D9C887F85B3018E041F2B040C1F6FF700DF049FA0346012B14BF00230123DBB2002B03D04FF0010387F8CA
S32D0000D9F05B3007F1040318461A49164A01F04CFA97F85B3083F00103DBB2002BDFD139E0333333333333D33FD1
S32D0000DA189A9999999999D93F9A9999999999B93FCDCCCCCCCCCCF43F0000A0429A99194000002042000067432C
S32D0000DA400000404000003443000028410000E0406666E63F000070410000B4420000874300000040CDCCCC3DF4
S32D0000DA6841F22810C1F6FF70C94902F03DFA41F23010C1F6FF70C64902F036FA41F2B040C1F6FF700DF0EEF9CD
S32D0000DA900346012B14BF00230123DBB2002BE3D107F104031846BD49BD4A01F0C9FA4FF0000387F8373097F898
S32D0000DAB83730002B05D007F10403184600F00CFADFE107F104031846B449B34A01F058FC01F066F807F10403DC
S32D0000DAE01846B149BA6B01F0D7F907F104031846AE49AB4A01F0A4FA07F104031846AC49A74A01F041FCAA489F
S32D0000DB0800F00EFE07F104031846A849A04A01F0BFF99BA1D1E9000107F08AFAF86BA449FFF762F90346184658
S32D0000DB3000F03AFC07F104031846A049BA6B01F023FC9F4800F0F0FD07F1040318469D49BA6B01F0A1F99C488B
S32D0000DB5800F0E6FD4FF000037B6513E088A1D1E9000107F065FA7B6D03F105037B65786DFFF7EEF9034641F27B
S32D0000DB804410C1F6FF70194608F066FE7B6D462B0CBF00230123DBB2002BE3D107F1040318468849844A01F07E
S32D0000DBA877F977A1D1E9000107F042FA41F24410C1F6FF70834908F04BFE71A1D1E9000107F036FA41F24410A4
S32D0000DBD0C1F6FF70764908F03FFE41F22410C1F6FF704FF0000108F0FFF969A1D1E9000107F022FA41F24410F1
S32D0000DBF8C1F6FF70734908F02BFE61A1D1E9000107F016FA41F24410C1F6FF70634908F01FFE5BA1D1E9000113
S32D0000DC2007F00AFA41F24410C1F6FF70684908F013FE55A1D1E9000107F0FEF907F1040318466449BA6B01F0B5
S32D0000DC48FBF941F24840C1F6FF704CF28C61C0F2010109F067FE4FF005033B6616E048A1D1E9000107F0E4F946
S32D0000DC703B6EC3F150031846FFF76EF9034641F24410C1F6FF70194608F0E6FD3B6E03F105033B663B6E4F2B82
S32D0000DC98CCBF00230123DBB2002BE0D1464800F03FFD07F1040318463F49BA6B01F068FB474800F035FD41F227
S32D0000DCC0B040C1F6FF700DF0BFF803463B63386B01F06AF84FF000033B650DE007F1040318463E49BA6B01F0C6
S32D0000DCE8ABF93B4800F01CFD3B6D03F101033B653B6D052BCCBF00230123DBB2002BE9D141F24840C1F6FF70A1
S32D0000DD104CF2A461C0F2010109F008FE3B6B012B11D141F23810C1F6FF702D4908F094FD41F24840C1F6FF70BA
S32D0000DD384CF2B061C0F2010109F0F4FD10E041F23810C1F6FF70254908F082FD41F24840C1F6FF704CF2B86122
S32D0000DD60C0F2010109F0E2FD41F24840C1F6FF704CF2C061C0F2010109F0D8FD4FF00003FB6444E0AFF3008060
S32D0000DD889A9999999999B93F333333333333D33F00002042000040400000704100008C420000C0400000C03F3A
S32D0000DDB00000B4420000B0410000A041000034420000074300005041000005430000A0420000704200002841E7
S32D0000DDD80000614300000040000034430000000007F1040318463249BA6B01F051F82EA1D1E9000107F01CF9F5
S32D0000DE002E4800F091FCFB6C03F10103FB64FB6C012BCCBF00230123DBB2002BE4D107F1040318462649BA6B80
S32D0000DE2801F0AEFA254800F07BFC07F1040318462349BA6B01F02CF8204800F071FC1F4800F06EFC07F10403D7
S32D0000DE5018461E49BA6B01F097FA07F1040318461B49BA6B01F018F807F1040318461949BA6B01F089FA184899
S32D0000DE7800F056FC07F1040318461649BA6B01F007F841F24840C1F6FF7009F06DFA41F2D040C1F6FF700DF0C2
S32D0000DEA01BFA4FF00003184607F17407BD4690BD9A9999999999B93F00008041000061430000C8410000874315
S32D0000DEC80000904100003442000040410000C8420000B4420000604180B584B000AF78604FF01E03FB60F868B8
S32D0000DEF0FFF732F80346786835491A4601F070F9344800F011FC78683349344A00F0C4FFF868FFF721F80346C5
S32D0000DF18786831491A4601F08FF8F868FFF718F8034678682D491A4601F02AFA2C4800F0F7FBF868FFF70CF87F
S32D0000DF400346786829491A4600F0A6FFF868FFF703F80346786826491A4601F015FA254800F0E2FBF868FEF74B
S32D0000DF68F7FF034678681F491A4600F091FF1F4800F0D6FB4FF000004FF07E5101F5C00107F056F8F868FEF75E
S32D0000DF90E3FF0346786815491A4600F07DFF154800F0C2FB4FF000004FF07E5101F5C00107F042F8F868FEF79A
S32D0000DFB8CFFF034678680B491A4600F069FF07F11007BD4680BD00BF00008C42000034430000F0410000204252
S32D0000DFE00000A040000034420000614300002041000007430000B44280B500AF41F22810C1F6FF7001F024FFEF
S32D0000E00841F23010C1F6FF7001F01EFF02A1D1E9000107F00DF880BD9A9999999999C93FB0B582B000AF7860EF
S32D0000E0308FE041F24840C1F6FF7009F099F941F24840C1F6FF704CF2D061C0F2010109F06DFC41F24840C1F60F
S32D0000E058FF704CF2E061C0F2010109F063FC41F2B040C1F6FF700CF04BFF034641F24840C1F6FF70194609F08F
S32D0000E08069FC41F24840C1F6FF704CF2EC61C0F2010109F04BFC41F24840C1F6FF70796809F058FC41F2B0407B
S32D0000E0A8C1F6FF700CF02CFF03464FF00102144618467968FFF75CF90346002B02D14FF000031C46E3B2002BE3
S32D0000E0D014D041F23010C1F6FF70404901F008FF41F22810C1F6FF703C4901F001FF4FF0640006F087FFFFF708
S32D0000E0F87FFF2AE041F2B040C1F6FF700CF000FF03464FF00102144618467968FFF712F90346002B02D14FF083
S32D0000E12000031C46E3B2002B13D041F23010C1F6FF702B4901F0DCFE41F22810C1F6FF70274901F0D5FE4FF0ED
S32D0000E148640006F05BFFFFF753FF41F2B040C1F6FF700CF0D5FE054678682049FEF742FE03464FF001021446E7
S32D0000E17028461946FFF7E2F80346002B02D14FF000031C46E3B2002B1BD141F2B040C1F6FF700CF0B9FE054606
S32D0000E19878681249FEF728FE03464FF00102144628461946FFF7E4F80346002B02D14FF000031C46E3B2002BD4
S32D0000E1C002D04FF0010301E04FF00003002B7FF430AF07F10807BD46B0BD00BF000070C1000070410000803FA5
S32D0000E1E8B0B582B000AF78608FE041F24840C1F6FF7009F0B9F841F24840C1F6FF704CF2FC61C0F2010109F0C8
S32D0000E2108DFB41F24840C1F6FF704CF2E061C0F2010109F083FB41F2B040C1F6FF700CF06BFE034641F248401B
S32D0000E238C1F6FF70194609F089FB41F24840C1F6FF704CF2EC61C0F2010109F06BFB41F24840C1F6FF70796875
S32D0000E26009F078FB41F2B040C1F6FF700CF04CFE03464FF00102144618467968FFF77CF80346002B02D14FF081
S32D0000E28800031C46E3B2002B14D041F23010C1F6FF70404901F028FE41F22810C1F6FF703C4901F021FE4FF0C1
S32D0000E2B0640006F0A7FEFFF79FFE2AE041F2B040C1F6FF700CF020FE03464FF00102144618467968FFF732F8FD
S32D0000E2D80346002B02D14FF000031C46E3B2002B13D041F23010C1F6FF702B4901F0FCFD41F22810C1F6FF7002
S32D0000E300274901F0F5FD4FF0640006F07BFEFFF773FE41F2B040C1F6FF700CF0F5FD054678682049FEF762FD04
S32D0000E32803464FF00102144628461946FFF702F80346002B02D14FF000031C46E3B2002B1BD141F2B040C1F6B4
S32D0000E350FF700CF0D9FD054678681249FEF748FD03464FF00102144628461946FFF704F80346002B02D14FF074
S32D0000E37800031C46E3B2002B02D04FF0010301E04FF00003002B7FF430AF07F10807BD46B0BD00BF0000A04186
S32D0000E3A00000A0C10000803FB0B582B000AF78608FE041F24840C1F6FF7008F0D9FF41F24840C1F6FF704CF2D2
S32D0000E3C80C71C0F2010109F0ADFA41F24840C1F6FF704CF21C71C0F2010109F0A3FA41F2B040C1F6FF700CF01B
S32D0000E3F09BFD034641F24840C1F6FF70194609F0A9FA41F24840C1F6FF704CF2EC61C0F2010109F08BFA41F271
S32D0000E4184840C1F6FF70796809F098FA41F2B040C1F6FF700CF07CFD03464FF00102144618467968FEF79CFF4A
S32D0000E4400346002B02D14FF000031C46E3B2002B14D041F23010C1F6FF70404901F048FD41F22810C1F6FF7036
S32D0000E4683C4901F041FD4FF0640006F0C7FDFFF7BFFD2AE041F2B040C1F6FF700CF050FD03464FF00102144642
S32D0000E49018467968FEF752FF0346002B02D14FF000031C46E3B2002B13D041F23010C1F6FF702B4901F01CFD34
S32D0000E4B841F22810C1F6FF70274901F015FD4FF0640006F09BFDFFF793FD41F2B040C1F6FF700CF025FD0546C9
S32D0000E4E078682049FEF782FC03464FF00102144628461946FEF722FF0346002B02D14FF000031C46E3B2002BDF
S32D0000E5081BD141F2B040C1F6FF700CF009FD054678681249FEF768FC03464FF00102144628461946FEF724FF05
S32D0000E5300346002B02D14FF000031C46E3B2002B02D04FF0010301E04FF00003002B7FF430AF07F10807BD4653
S32D0000E558B0BD00BF0000A0C10000A0410000803FB0B582B000AF78608FE041F24840C1F6FF7008F0F9FE41F2D8
S32D0000E5804840C1F6FF704CF22871C0F2010109F0CDF941F24840C1F6FF704CF21C71C0F2010109F0C3F941F22D
S32D0000E5A8B040C1F6FF700CF0BBFC034641F24840C1F6FF70194609F0C9F941F24840C1F6FF704CF2EC61C0F21A
S32D0000E5D0010109F0ABF941F24840C1F6FF70796809F0B8F941F2B040C1F6FF700CF09CFC03464FF00102144650
S32D0000E5F818467968FEF7BCFE0346002B02D14FF000031C46E3B2002B14D041F23010C1F6FF70404901F068FC01
S32D0000E62041F22810C1F6FF703C4901F061FC4FF0640006F0E7FCFFF7DFFC2AE041F2B040C1F6FF700CF070FC60
S32D0000E64803464FF00102144618467968FEF772FE0346002B02D14FF000031C46E3B2002B13D041F23010C1F663
S32D0000E670FF702B4901F03CFC41F22810C1F6FF70274901F035FC4FF0640006F0BBFCFFF7B3FC41F2B040C1F67E
S32D0000E698FF700CF045FC054678682049FEF7A2FB03464FF00102144628461946FEF742FE0346002B02D14FF015
S32D0000E6C000031C46E3B2002B1BD141F2B040C1F6FF700CF029FC054678681249FEF788FB03464FF001021446CE
S32D0000E6E828461946FEF744FE0346002B02D14FF000031C46E3B2002B02D04FF0010301E04FF00003002B7FF47F
S32D0000E71030AF07F10807BD46B0BD00BF0000A0410000A0C10000803FB0B584B000AF7860DFF85434FB6078680B
S32D0000E738DFF85014FEF7F4FD0346002B40F007824FF001031C467868DFF83C14FEF7F2FD0346002B02D14FF04F
S32D0000E76000031C46E3B2002B10D04FF001031C467868DFF81414FEF7FFFD0346002B02D14FF000031C46E3B291
S32D0000E788002B21D14FF001031C467868FF49FEF7D1FD0346002B02D14FF000031C46E3B2002B00F092814FF0C9
S32D0000E7B001031C467868F849FEF7DEFD0346002B02D14FF000031C46E3B2002B00F08181F24B7B6041F2B0400C
S32D0000E7D8C1F6FF700CF0B4FB03464FF0010214461846E949FEF7B0FD0346002B02D14FF000031C46E3B2002B80
S32D0000E80019D041F2B040C1F6FF700CF09DFB03464FF0010214461846DB49FEF7A3FD0346002B02D14FF000039F
S32D0000E8281C46E3B2002B02D04FF0010301E04FF00003002B0DD041F2B040C1F6FF700CF07FFB03461846D349DE
S32D0000E850FEF7CEFA0346FB60B0E041F2B040C1F6FF700CF071FB0346CA481946FEF7BEFA0346CA481946FEF7E2
S32D0000E878B9FA0346FB609DE04FF001031C46F8687968FEF775FD0346002B02D14FF000031C46E3B2002B14D0C2
S32D0000E8A041F23010C1F6FF70BD4901F021FB41F22810C1F6FF70BB4901F01AFB4FF0640006F0A0FBFFF798FB46
S32D0000E8C823E04FF001031C46F8687968FEF732FD0346002B02D14FF000031C46E3B2002B13D041F23010C1F65D
S32D0000E8F0FF70AC4901F0FCFA41F22810C1F6FF70A74901F0F5FA4FF0640006F07BFBFFF773FB41F2B040C1F601
S32D0000E918FF700CF015FB03464FF00102144618469949FEF711FD0346002B02D14FF000031C46E3B2002B19D09A
S32D0000E94041F2B040C1F6FF700CF0FEFA03464FF00102144618468C49FEF704FD0346002B02D14FF000031C4673
S32D0000E968E3B2002B02D04FF0010301E04FF00003002B0DD041F2B040C1F6FF700CF0E0FA034618468349FEF7FA
S32D0000E9902FFA0346FB6011E041F2B040C1F6FF700CF0D2FA03467B481946FEF71FFA03467A481946FEF71AFA9E
S32D0000E9B80346FB6078687449FEF714FA03464FF0010214461846F968FEF7D2FC0346002B02D14FF000031C469B
S32D0000E9E0E3B2002B14D178686949FEF701FA03464FF0010214461846F968FEF79FFC0346002B02D14FF0000325
S32D0000EA081C46E3B2002B02D04FF0010301E04FF00003002B7FF430AFA3E041F2B040C1F6FF700CF08DFA034671
S32D0000EA304FF00102144618467968FEF79DFC0346002B02D14FF000031C46E3B2002B14D041F23010C1F6FF7027
S32D0000EA58514901F049FA41F22810C1F6FF704F4901F042FA4FF0640006F0C8FAFFF7C0FA2CE041F2B040C1F67B
S32D0000EA80FF700CF061FA03464FF00102144618467968FEF753FC0346002B02D14FF000031C46E3B2002B15D0AA
S32D0000EAA841F23010C1F6FF703C4901F01DFA41F22810C1F6FF70384901F016FA4FF0640006F09CFAFFF794FA54
S32D0000EAD000E000BF41F2B040C1F6FF700CF034FA054678682A49FEF781F903464FF00102144628461946FEF752
S32D0000EAF821FC0346002B02D14FF000031C46E3B2002B1BD141F2B040C1F6FF700CF018FA054678681C49FEF760
S32D0000EB2067F903464FF00102144628461946FEF723FC0346002B02D14FF000031C46E3B2002B02D04FF00103E1
S32D0000EB4801E04FF00003002B7FF467AF09E041F24840C1F6FF704CF23871C0F2010108F0E1FE05A1D1E900012B
S32D0000EB7006F062FA07F11007BD46B0BDAFF300809A9999999999B93F00000000000080BF000000400000B4437F
S32D0000EB980000B3430000A040000070C10000704190B583B000AF764B7B6041F24840C1F6FF704CF24871C0F24A
S32D0000EBC0010108F0B3FE41F2B040C1F6FF700CF0BBF903463B6038686C49FEF7A5FB0346002B40F0BA804FF098
S32D0000EBE801031C4638686849FEF7A4FB0346002B02D14FF000031C46E3B2002B5CD04FF001031C4638685E49F1
S32D0000EC10FEF7B2FB0346002B02D14FF000031C46E3B2002B4CD041F2B040C1F6FF700CF08BF903467B601BE085
S32D0000EC3841F2B040C1F6FF700CF082F903467B6041F23010C1F6FF70504901F04DF941F22810C1F6FF704E4939
S32D0000EC6001F046F94FF0C80006F0CCF9FFF7C4F94FF001031C4678684549FEF75FFB0346002B02D14FF00003F6
S32D0000EC881C46E3B2002B12D04FF001031C4678683B49FEF76DFB0346002B02D14FF000031C46E3B2002B02D077
S32D0000ECB04FF0010301E04FF00003002BBCD156E041F2B040C1F6FF700CF03EF903467B601BE041F23010C1F61D
S32D0000ECD8FF702F4901F008F941F22810C1F6FF702A4901F001F94FF0C80006F087F941F2B040C1F6FF700CF084
S32D0000ED0023F903467B60FFF777F94FF001031C4678682249FEF730FB0346002B02D14FF000031C46E3B2002B84
S32D0000ED2812D04FF001031C4678681B49FEF702FB0346002B02D14FF000031C46E3B2002B02D04FF0010301E05F
S32D0000ED504FF00003002BBCD109E041F24840C1F6FF704CF23871C0F2010108F0DFFD04A1D1E9000106F060F9B3
S32D0000ED7807F10C07BD4690BD9A9999999999B93F00000000000080BF0000B4420000A0C10000A0410000874342
S32D0000EDA00080B343AFF3008080B582B000AF786041F23810C1F6FF7040F2953107F00EFD41F23810C1F6FF7083
S32D0000EDC840F6C41107F024FD7B68012B11D141F23810C1F6FF70114907F03AFD41F24840C1F6FF704CF25871F8
S32D0000EDF0C0F2010108F09AFD10E041F23810C1F6FF70094907F028FD41F24840C1F6FF704CF26C71C0F2010103
S32D0000EE1808F088FD07F10807BD4680BD000000000000344380B584B000AFF860B9607A60FB68BA689A60FB684C
S32D0000EE40BA689A61FB68BA681A60FB68BA681A61FB687A681A62FB68BA68DA60FB68BA68DA61FB68BA685A6009
S32D0000EE68FB68BA685A61FB687A685A6206F00CF902460B4610461946FDF760FF0246FB689A62FB68184607F13F
S32D0000EE901007BD4680BD00BF90B589B000AFF860B9607A6041F24840C1F6FF704CF2A471C0F2010108F03AFDAF
S32D0000EEB8FB685F4A9A61FB685D4ADA6106F0E4F802460B4610461946FDF738FF0246FB681A6006F0D9F8024661
S32D0000EEE00B4610461946FDF72DFF0246FB685A607B6818461946FDF77BFF03467B60F86800F016FB4FF00103A3
S32D0000EF08FB777DE006F0C0F802460B4610461946FDF714FF0246FB681A6006F0B5F802460B4610461946FDF7FF
S32D0000EF3009FF0246FB685A603BA1D1E9000106F07BF841F25410C1F6FF7006F0D7FD044641F25010C1F6FF70BC
S32D0000EF5806F0D0FD0346E3181846FDF7A7FB02460B46104619464FF000024FF08043FDF72DFD02460B461046F2
S32D0000EF8019462BA3D3E90023FDF7FAFB02460B4610461946FDF7D6FE0346BB614FF001031C46B869B968FEF717
S32D0000EFA8C9F90346002B02D14FF000031C46FC7706F06AF802460B4610461946FDF7BEFE03467B61F86879695E
S32D0000EFD07A684FF0000300F0F7FA034641F23010C1F6FF70194600F083FFF86879697A684FF0010300F0E8FA22
S32D0000EFF8034641F22810C1F6FF70194600F074FFFB7F002B7FF47EAFFEF7F2FF04A1D1E9000106F00DF807F1D1
S32D0000F0202407BD4690BD00BF9A9999999999B93FA8D39477E8CEAA3F00000000AFF3008090B589B000AFF8602D
S32D0000F048B9607A6041F24840C1F6FF704CF2B071C0F2010108F066FCFB685D4A9A61FB685B4ADA6106F010F813
S32D0000F07002460B4610461946FDF764FE0246FB681A6006F005F802460B4610461946FDF759FE0246FB685A60B8
S32D0000F098F86800F049FA4FF00103FB7781E005F0F3FF02460B4610461946FDF747FE0246FB681A6005F0E8FF32
S32D0000F0C002460B4610461946FDF73CFE0246FB685A603DA1D1E9000105F0AEFF41F25410C1F6FF7006F00AFD4C
S32D0000F0E8044641F25010C1F6FF7006F003FD0346E3181846FDF7DAFA02460B46104619464FF000024FF0804306
S32D0000F110FDF760FC02460B46104619462CA3D3E90023FDF72DFB02460B4610461946FDF709FE0346BB614FF07C
S32D0000F13801031C46B869B968FEF7FCF80346002B02D14FF000031C46FC7705F09DFF02460B4610461946FDF7E7
S32D0000F160F1FD03467B61F86879697A684FF0000300F02AFA034683F0004341F23010C1F6FF70194600F0B4FE5B
S32D0000F188F86879697A684FF0010300F019FA034683F0004341F22810C1F6FF70194600F0A3FEFB7F002B7FF457
S32D0000F1B07AAFFEF721FF04A1D1E9000105F03CFF07F12407BD4690BD9A9999999999B93FA8D39477E8CEAA3F3C
S32D0000F1D800000000AFF3008090B589B000AFF860B9607A6041F24840C1F6FF704CF2BC71C0F2010108F096FBE6
S32D0000F200B8685F49FDF7B0FF0346BB61FB685D4A9A61FB685B4ADA6105F03AFF02460B4610461946FDF78EFDCD
S32D0000F2280246FB681A6005F02FFF02460B4610461946FDF783FD0246FB685A60F86800F073F94FF00103FB77D8
S32D0000F2507FE005F01DFF02460B4610461946FDF771FD0246FB681A6005F012FF02460B4610461946FDF766FDA0
S32D0000F2780246FB685A603CA1D1E9000105F0D8FE41F25410C1F6FF7006F034FC044641F25010C1F6FF7006F0C4
S32D0000F2A02DFC0346E3181846FDF704FA02460B46104619464FF000024FF08043FDF78AFB02460B46104619462B
S32D0000F2C82BA3D3E90023FDF757FA02460B4610461946FDF733FD03467B614FF001031C467869B969FEF726F8D4
S32D0000F2F00346002B02D14FF000031C46FC7705F0C7FE02460B4610461946FDF71BFD03463B61F86839697A68B5
S32D0000F3184FF0000300F054F9034683F0004341F23010C1F6FF70194600F0DEFDF86839697A684FF0010300F06F
S32D0000F34043F9034641F22810C1F6FF70194600F0CFFDFB7F002B7FF47CAFFEF74DFE04A1D1E9000105F068FE30
S32D0000F36807F12407BD4690BD9A9999999999B93FA8D39477E8CEAA3F000070410000000090B589B000AFF8601A
S32D0000F390B9607A6041F24840C1F6FF704CF2C871C0F2010108F0C2FAB8685F49FDF7DCFE0346BB61FB685D4A97
S32D0000F3B89A61FB685B4ADA6105F066FE02460B4610461946FDF7BAFC0246FB681A6005F05BFE02460B46104636
S32D0000F3E01946FDF7AFFC0246FB685A60F86800F09FF84FF00103FB777FE005F049FE02460B4610461946FDF723
S32D0000F4089DFC0246FB681A6005F03EFE02460B4610461946FDF792FC0246FB685A603CA1D1E9000105F004FE23
S32D0000F43041F25410C1F6FF7006F060FB044641F25010C1F6FF7006F059FB0346E3181846FDF730F902460B46FB
S32D0000F458104619464FF000024FF08043FDF7B6FA02460B46104619462BA3D3E90023FDF783F902460B46104690
S32D0000F4801946FDF75FFC03467B614FF001031C467869B969FDF752FF0346002B02D14FF000031C46FC7705F04B
S32D0000F4A8F3FD02460B4610461946FDF747FC03463B61F86839697A684FF0000300F080F8034641F23010C1F6DB
S32D0000F4D0FF70194600F00CFDF86839697A684FF0010300F071F8034683F0004341F22810C1F6FF70194600F0E8
S32D0000F4F8FBFCFB7F002B7FF47CAFFEF779FD04A1D1E9000105F094FD07F12407BD4690BD9A9999999999B93F59
S32D0000F520A8D39477E8CEAA3F000070410000000080B584B000AF786041F25410C1F6FF7006F0F0FA41F25010C7
S32D0000F548C1F6FF7006F0EAFA1B4BFB604FF00003BB607B68FA689A607B68FA689A617B68FA681A607B68BA6834
S32D0000F5701A627B68FA68DA607B68FA68DA617B68FA685A607B68BA685A6205F081FD02460B4610461946FDF77D
S32D0000F598D5FB02467B689A6205A1D1E9000105F047FD07F11007BD4680BD00BFAFF300809A9999999999B93FF5
S32D0000F5C000000000AFF3008080B58CB000AFF860B9607A603B60FB683A6853F82230B8681946FDF703FC034698
S32D0000F5E8BB623B68002B19D141F25410C1F6FF7006F080FA0246FB68396801F1080153F82130D31AFB6241F293
S32D0000F610D040C1F6FF704CF2D471C0F201010BF077FE18E041F25010C1F6FF7006F066FA0246FB68396801F1AA
S32D0000F638080153F82130D31AFB6241F2D040C1F6FF704CF2F071C0F201010BF05DFE41F2D040C1F6FF704CF6F8
S32D0000F6600C01C0F20101FA6A0BF052FEB86AFDF733F802460B4641F2D040C1F6FF704CF61C01C0F201010BF0BB
S32D0000F68843FEF86AFDF764FC03461846B96AFDF767FD03461846FDF71BF802460B461046194671A3D3E900234C
S32D0000F6B0FDF766F802460B4610461946FDF742FB03467B627868796AFDF790FB03463B62786AFDF701F80246F6
S32D0000F6D80B4641F2D040C1F6FF704CF62801C0F201010BF011FE386AFCF7F2FF02460B4641F2D040C1F6FF7099
S32D0000F7004CF63801C0F201010BF002FEFB683A6802F1040253F822301846396AFDF768FB03461946FB683A6811
S32D0000F72802F1040243F82210386A5349FDF764FC0346FB61FB683A6802F1040253F822301846FCF7C5FF02461E
S32D0000F7500B461046194648A3D3E90023FDF710F802460B4610461946FDF7ECFA0346BB61FB683A6802F1020236
S32D0000F77853F82230386A1946FDF734FB034618463E49FDF739FC03467B613B68002B0DD141F25410C1F6FF70BD
S32D0000F7A006F0ACF90146FB683A6802F1080243F822100CE041F25010C1F6FF7006F09EF90146FB683A6802F179
S32D0000F7C8080243F82210FB683A6802F10202396A43F82210FB683A6802F1060253F822301846F969FDF700FB44
S32D0000F7F003461946FB683A6802F1060243F82210FB683A6802F1060253F822301846FCF763FF02460B4641F2BA
S32D0000F818D040C1F6FF704CF64401C0F201010BF073FD3B68002B0AD141F2D040C1F6FF704CF66001C0F201017D
S32D0000F8400BF066FD09E041F2D040C1F6FF704CF67C01C0F201010BF05BFDFB683A6802F1060253F82230184629
S32D0000F86807F13007BD4680BDA8D39477E8CEBA3F7B14AE47E17AA43F0000003F0000803E80B582B000AF786021
S32D0000F89039607B68012B4ED13A684FF6FF739A4249D141F21C10C1F6FF704FF00F0105F049FC41F22010C1F60C
S32D0000F8B8FF704FF01F0106F045F941F22410C1F6FF704FF0180106F081FA41F22810C1F6FF704FF00201184A95
S32D0000F8E000F05EFA41F23010C1F6FF704FF00301134A00F055FA41F23810C1F6FF704FF0070106F04DFF41F2DD
S32D0000F9084410C1F6FF704FF0000106F045FF41F25010C1F6FF704FF0080105F033FD41F25410C1F6FF704FF0BB
S32D0000F9300F0105F02BFD07F10807BD4680BD00BF6666E64080B500AF4FF001004FF6FF71FFF79AFF80BD00BF20
S32D0000F95880B500AF41F64C12C1F6FF7241F21C13C1F6FF73D31A194641F21C13C1F6FF731A460B4610464FF038
S32D0000F98000011A460BF0EBFD80BD00BF0CF060FE00F0B0F9FFF7E0FF0CF032FE0CF0CEFD0CF066FE00F00CF80A
S32D0000F9A84FF0000041F25811C1F6FF71FDF710FD034618460BF0AAFD80B500AF4FF4E043C4F204034FF4E04279
S32D0000F9D0C4F2040202F5805202F13802126842F4785203F5805303F138031A6000F02EF900F094F841F29433DC
S32D0000F9F8C1F6FF734FF058021A6041F29433C1F6FF731B684FF47A7202FB03F241F29033C1F6FF731A6041F212
S32D0000FA209033C1F6FF731B681A464FF4E043C4F2040303F5825303F104031B6803F070634FEA136303F101030E
S32D0000FA48B2FBF3F31A4641F29833C1F6FF731A604FF4E043C4F204034FF4E042C4F2040202F5805202F13C02BE
S32D0000FA70126842F0225203F5805303F13C031A604FF4E043C4F204034FF4E042C4F2040202F5805202F130029E
S32D0000FA98126842F0006203F5805303F130031A604FF45043C4F203034FF480721A614FF0640005F037F94FF479
S32D0000FAC05043C4F203034FF45042C4F20302526922F010025A614FF45043C4F203034FF000021A604FF450437C
S32D0000FAE8C4F203034FF010025A6106F0DFFB06F087FC41F28C30C1F6FF7005F097F941F24840C1F6FF7007F06D
S32D0000FB1067FA41F2883005F075FA80BD80B400AF4FF48043C4F206034FF000025A704FF48043C4F206034FF023
S32D0000FB3898021A704FF48043C4F206039B79DBB203F01003002B0CBF00230123DBB2002BF0D14FF48043C4F29D
S32D0000FB6006039B79DBB203F00C034FEA9303022B0CBF00230123DBB2002BEED14FF48043C4F206034FF0180228
S32D0000FB881A714FF48043C4F206034FF000025A714FF4E043C4F2040303F5825303F104034FF00002C0F21312F0
S32D0000FBB01A604FF48043C4F206034FF054025A7100BF4FF48043C4F206039B79DBB203F02003002B14BF00232C
S32D0000FBD80123DBB2002BF0D100BF4FF48043C4F206039B79DBB203F04003002B14BF00230123DBB2002BF0D149
S32D0000FC004FF48043C4F206034FF48042C4F206021278D2B202F03F02D2B21A704FF48043C4F206039B79DBB299
S32D0000FC2803F00C034FEA9303032B0CBF00230123DBB2002BEED14FF000031846BD4680BC704700BF80B400AFEE
S32D0000FC504FF44043C4F204034FF480725A634FF2C003C4F20F034FF2C002C4F20F02526942F400525A614FF23C
S32D0000FC78C003C4F20F034FF2C002C4F20F02126842F400521A604FF44043C4F2040340F20312C0F20A021A6388
S32D0000FCA04FF46143CEF200034FF46142CEF20002D2F8882142F08062C3F888214FF46143CEF200034FF4614269
S32D0000FCC8CEF20002926842F080629A60BD4680BC704700BF80B483B000AF7860FEE700BF80B400AF00BEBD4659
S32D0000FCF080BC704780B400AF4FF0E0224CF20003C0F20003C2F8083D4FF40053C4F205034CF22052DA814FF438
S32D0000FD180053C4F205034DF62812DA814FF40053C4F205034FF0D2021A80BD4680BC704780B500AF4FF4404333
S32D0000FD40C4F20403D3F8A03003F48053002B0CBF00230123DBB2002B1FD04FF44043C4F204034FF44042C4F291
S32D0000FD680402D2F8A02022F48052C3F8A02041F2D040C1F6FF700BF0ABFA4FF2C003C4F20F034FF2C002C4F2EC
S32D0000FD900F02126822F400521A6080BD0000000090B585B000AFF8600B467A60FB72FB68FA7A1A71FB684FF07E
S32D0000FDB800025A714FF001031C4678682049FDF7D7FA0346002B02D14FF000031C46E3B2002B02D01A4B7B60E0
S32D0000FDE011E04FF001031C4678681849FDF7B0FA0346002B02D14FF000031C46E3B2002B01D0124B7B607868EC
S32D0000FE08FCF766FC02460B46104619460AA3D3E90023FCF7B1FC02460B4610461946FCF78DFF0246FB681A600B
S32D0000FE30FB68184607F11407BD4690BDAFF30080ABAAAAAAAAAA2040000040410000803F80B582B000AF7860D3
S32D0000FE587B685B79002B10D07B684FF000025A717B681B7941F28C30C1F6FF7019464FF000024FF01E0305F04A
S32D0000FE8023F807F10807BD4680BD00BF80B584B000AF786039603B687F2B03DD4FF07F03FB7309E03B6813F1BE
S32D0000FEA8800F03DA4FF08003FB7301E03B68FB737B685B79FA7B9A420FD07B68FA7B5A717B681A79FB7B41F275
S32D0000FED08C30C1F6FF7011461A464FF01E0304F0F3FF07F11007BD4680BD00BF00000000B0B584B000AF7860F7
S32D0000FEF839604FF001031C4638684D49FDF71AFA0346002B02D14FF000031C46E3B2002B02D0474B3B6011E0C5
S32D0000FF204FF001031C4638684449FDF725FA0346002B02D14FF000031C46E3B2002B01D03E4B3B603868FCF79B
S32D0000FF48C7FB04460D467B681B681846FCF7C0FB02460B46104619464FF000024FF0804303F5B203FCF732FD5A
S32D0000FF7002460B4620462946FCF702FC02460B4610461946FCF7DEFE03463B604FF001031C4638682A49FDF757
S32D0000FF98E5F90346002B02D14FF000031C46E3B2002B14D03868FCF793FB02460B46104619461DA3D3E90023C0
S32D0000FFC0FCF7DEFB02460B4610461946FCF772FE0346FB6022E03868FCF77EFB02460B46104619464FF0000255
S32D0000FFE84FF0804303F5C003FCF7C6FB02460B46104619464FF000024FF0804303F5B203FCF7E4FC02460B46D0
S32D0001001010461946FCF74EFE0346FB607868F968FFF734FF07F11007BD46B0BDAFF3008052B81E85EB51F43F02
S32D000100380000C8C20000C84200000000AFF3008080B485B000AF02460B46FA71BB71BB79002B07D141F25C13C2
S32D00010060C1F6FF734FF000021A7006E041F25C13C1F6FF734FF001021A704FF03803FB7341F25C13C1F6FF734D
S32D000100881A78FB7B1343FB734FF4C043C4F206034FF4C042C4F206029278D2B242F01002D2B29A704FF4C043CF
S32D000100B0C4F206034FF4C042C4F206029278D2B242F02002D2B29A704FF4C043C4F20603FA7B1A7107F11407D7
S32D000100D8BD4680BC704700BF80B483B000AF4FF001037B6004E000BF7B6803F101037B607B68312BCCBF0023CA
S32D000101000123DBB2002BF2D107F10C07BD4680BC704700BF80B582B000AF02460B46FA71BB7141F25D13C1F6D1
S32D00010128FF731B7818464FF00001FFF789FF4FF4C043C4F20603DB78DBB203F00203002B14BF00230123DBB2D8
S32D00010150002BF0D14FF4C043C4F206034FF4C042C4F20602D278D2B242F00202D2B2DA704FF4C043C4F20603B5
S32D00010178FA791A714FF4C043C4F20603DB78DBB203F00203002B14BF00230123DBB2002BF0D14FF4C043C4F2C3
S32D000101A006034FF4C042C4F20602D278D2B242F00202D2B2DA704FF4C043C4F20603BA791A714FF4C043C4F293
S32D000101C80603DB78DBB203F00203002B14BF00230123DBB2002BF0D14FF4C043C4F206034FF4C042C4F2060261
S32D000101F0D278D2B242F00202D2B2DA704FF4C043C4F206034FF4C042C4F206029278D2B222F02002D2B29A70B6
S32D000102184FF4C043C4F206034FF4C042C4F206029278D2B222F01002D2B29A70FFF754FF07F10807BD4680BDDF
S32D0001024080B582B000AF0346FB71FB79184600F06BF807F10807BD4680BD00BF80B582B000AF02460B46FA717F
S32D00010268BB7100F039F8FB794FEA4303DBB21846FFF7E2FFBB791846FFF7DEFF00F03EF807F10807BD4680BD93
S32D0001029080B500AF4FF0FF0000F046F80346184680BD00BF80B584B000AF0346FB7100F017F8FB794FEA43038D
S32D000102B8DBB243F00103DBB2DBB21846FFF7BCFFFFF7E2FF0346FB7300F018F8FB7B184607F11007BD4680BD79
S32D000102E080B400AF4FF24003C4F20F034FF24002C4F20F02926842F480129A60BD4680BC704700BF80B400AF22
S32D000103084FF24003C4F20F034FF24002C4F20F02526842F480125A60BD4680BC704700BF80B485B000AF0346DE
S32D00010330FB714FF00003BB7303E0FB7B03F10103FB734FF44043C4F20A03DB6A4FF00003002BF2D14FF440433F
S32D00010358C4F20A034FF44042C4F20A02D26A42F00042DA624FF44043C4F20A03FA795A6300BF4FF44043C4F24C
S32D000103800A03DB6A03F40033002B14BF00230123DBB2002BF1D14FF44043C4F20A039B6BBB73BB7B184607F1CA
S32D000103A81407BD4680BC704780B582B000AF4FF4E043C4F204034FF4E042C4F2040202F5805202F13002126853
S32D000103D042F4805203F5805303F130031A604FF42043C4F204034FF480721A654FF24003C4F20F034FF24002A4
S32D000103F8C4F20F02526942F480125A61FFF77EFF4FF42043C4F204034FF400725A654FF42043C4F204034FF4E1
S32D0001042000729A654FF42043C4F204034FF40072DA654FF44043C4F20A034FF44062C8F200021A604FF440437B
S32D00010448C4F20A034FF00502C3F60062DA604FF000037B6007E04FF0FF00FFF7EDFE7B6803F101037B607B686B
S32D00010470092BCCBF00230123DBB2002BEFD104A1D1E9000104F0D8FD07F10807BD4680BD9A9999999999B93FE0
S32D0001049890B486B000AFF860B9607A60FA684FF42043C4F206039A4214D14FF4E043C4F204034FF4E042C4F2FB
S32D000104C0040202F5805202F13402126842F4806203F5805303F134031A6083E0FA684FF43043C4F206039A42FD
S32D000104E814D14FF4E043C4F204034FF4E042C4F2040202F5805202F13402126842F4006203F5805303F13403C2
S32D000105101A6067E0FA684FF44043C4F206039A4214D14FF4E043C4F204034FF4E042C4F2040202F5805202F153
S32D000105383402126842F4805203F5805303F134031A604BE0FA684FF45043C4F206039A4214D14FF4E043C4F26D
S32D0001056004034FF4E042C4F2040202F5805202F13402126842F4005203F5805303F134031A602FE0FA684FF42C
S32D000105882043C4F20E039A4214D14FF4E043C4F204034FF4E042C4F2040202F5805202F12802126842F480629D
S32D000105B003F5805303F128031A6013E04FF4E043C4F204034FF4E042C4F2040202F5805202F12802126842F4EB
S32D000105D8006203F5805303F128031A60FB68DB78DBB223F00C03DAB2FB68DA70FB684FF000029A70BB684FF47C
S32D000106007A7202FB03F27B684FEA031392FBF3F39CB2FB681B78DBB223F01F03FB75234603F4F8534FEA2323A8
S32D00010628DBB203F01F03DAB2FB7D1343DAB2FB681A70E2B2FB685A70BB684FF4FA4202FB03F27B684FEA0313A7
S32D0001065092FBF3F39AB2234619464FEAC121CB1A4FEA43139BB2D3189CB2FB689B7ADBB223F01F03FB75E3B2A0
S32D0001067803F01F03DAB2FB7D1343DAB2FB689A72FB68DB78DBB243F00C03DAB2FB68DA7007F11807BD4690BCC5
S32D000106A0704700BF80B483B000AF786000BF7B681B79DBB203F02003002B14BF00230123DBB2002BF3D17B684A
S32D000106C8DB79DBB2184607F10C07BD4680BC704780B483B000AF78600B46FB7000BF7B681B79DBB2DBB26FEA70
S32D000106F00303DBB24FEAD313DBB2002BF3D17B68FA78DA7107F10C07BD4680BC704700BF80B487B000AFF860DB
S32D00010718B9607A60FB687B61BB683B610BE03B691A787B691A707B6903F101037B613B6903F101033B617B685F
S32D00010740002B0CBF00230123DBB27A6802F1FF327A60002BE7D107F11C07BD4680BC704780B487B000AFF8607A
S32D00010768B9607A60FB687B6107E0BB68DAB27B691A707B6903F101037B617B68002B0CBF00230123DBB27A68E5
S32D0001079002F1FF327A60002BEBD107F11C07BD4680BC704780B489B000AFF860B9607A60FB68FB61BB68BB61DF
S32D000107B84FF000037B617B68002B0CBF00230123DBB27A6802F1FF327A60002B19D0FB691B781A46BB691B7845
S32D000107E0D31A7B617B69002B14BF00230123DBB2FA6902F10102FA61BA6902F10102BA61002B02D04FF0010343
S32D0001080801E04FF00003002BD5D17B69184607F12407BD4680BC704780B483B000AF7860396003E07B6803F131
S32D0001083001037B607B681B78002B08D07B681B781A463B689A4202D04FF0010301E04FF00003002BEAD17B68EB
S32D000108581B78184607F10C07BD4680BC704700BF80B584B000AF786039607B681B6BFB60FA683B689A4264D05E
S32D000108807B681B79002B43D07B685A787B6803F1340310461946FA684FF0010304F0B4F80346002B0CBF002375
S32D000108A80123DBB2002B02D04FF001034BE07B684FF000021A717B685A6A7B681B6AD218FB689A4220D97B6842
S32D000108D0DB78FB7214E07B681B6AFA68D318FB607B685A787B6803F1340310461946FA684FF0010304F088F8A4
S32D000108F8FB7A03F1FF33FB72FB7A012B94BF00230123DBB2002BE2D13B68002B19D07B685A787B6803F13403A9
S32D00010920104619463A684FF0010303F05FFF0346002B0CBF00230123DBB2002B02D04FF0010304E07B683A6801
S32D000109481A634FF00003184607F11007BD4680BD80B584B000AF786078684FF00001FFF77FFF0346FB73FB7B63
S32D00010970002B40F0AE807B681B78032B40F095807B685B79002B00F090807B684FF000021A637B6803F1340355
S32D0001099818464FF000014FF40072FFF7DDFE7B684FF0550283F832227B684FF0AA0283F833227B684FF05202B0
S32D000109C083F834207B684FF0520283F835207B684FF0610283F836207B684FF0410283F837207B684FF07202D0
S32D000109E883F818227B684FF0720283F819227B684FF0410283F81A227B684FF0610283F81B227B681B69DAB293
S32D00010A107B6883F81C227B681B699BB24FEA2323DAB27B6883F81D227B681B694FEA1343DAB27B6883F81E229F
S32D00010A387B681B694FEA1363DAB27B6883F81F227B68DB68DAB27B6883F820227B68DB689BB24FEA2323DAB27E
S32D00010A607B6883F821227B68DB684FEA1343DAB27B6883F822227B68DB684FEA1363DAB27B6883F823227B68FC
S32D00010A8859787B6803F134027B685B69084611461A464FF0010303F0B3FF7B684FF000025A717B685B781846CA
S32D00010AB04FF000014FF0000204F08CF80346002B0CBF00230123DBB2002B02D04FF00103FB73FB7B184607F191
S32D00010AD81007BD4680BD00BF80B483B000AF786039603B68A3F102033B607B68DB69A3F102023B689A4202D863
S32D00010B004FF0000307E07B689B783A6802FB03F27B68DB6AD318184607F10C07BD4680BC704700BF80B586B077
S32D00010B2800AF786039603B68012B04D97B68DA693B689A4202D84FF00103D3E07B681B78022B5FD0032B00F06D
S32D00010B508A80012B40F0C8803B687B617B694FEA53037A69D3187B617B685A6A7B694FEA5323D31878681946C8
S32D00010B78FFF776FE0346002B0CBF00230123DBB2002B40F0A6807B694FEAC3534FEAD3537A68D31893F8343002
S32D00010BA03B617B6903F101037B617B685A6A7B694FEA5323D31878681946FFF755FE0346002B0CBF002301239F
S32D00010BC8DBB2002B40F087807B694FEAC3534FEAD3537A68D31893F834304FEA03233A6913433B613B6803F037
S32D00010BF00103DBB2002B03D03B694FEA131304E03B694FEA03534FEA13536FE07B685A6A3B684FEA1323D3189B
S32D00010C1878681946FFF724FE0346002B0CBF00230123DBB2002B58D13B684FEA43034FEAC3534FEAD35303F12B
S32D00010C4030037A68D31803F10403FB60FB6803F101031B784FEA03239AB2FB681B7813439BB29BB242E07B68AB
S32D00010C685A6A3B684FEAD313D31878681946FFF7F7FD0346002B0CBF00230123DBB2002B2DD13B684FEA830325
S32D00010C904FEAC3534FEAD35303F130037A68D31803F10403FB60FB6803F103031B784FEA0362FB6803F1020353
S32D00010CB81B784FEA03431A43FB6803F101031B784FEA03231A43FB681B78134323F0704308E000BF04E000BF98
S32D00010CE002E000BF00E000BF4FF0FF33184607F11807BD4680BD00BF80B588B000AFF860B9607A60BB68012B0A
S32D00010D0804D9FB68DA69BB689A4203D84FF00203FB771AE1FB681B78022B00F08580032B00F0AD80012B40F0EF
S32D00010D300181BB68BB61BB694FEA5303BA69D318BB61FB685A6ABB694FEA5323D318F8681946FFF789FD03468D
S32D00010D58FB77FB7F002B40F0ED80BB694FEAC3534FEAD35303F13003FA68D31803F104037B61BB6803F0010381
S32D00010D80DBB2002B0ED07B691B78DBB203F00F03DAB27B68DBB24FEA0313DBB21343DBB2DBB201E07B68DBB20C
S32D00010DA87A691370BB6903F10103BB61FB684FF001021A71FB685A6ABB694FEA5323D318F8681946FFF74CFD6B
S32D00010DD00346FB77FB7F002B40F0B280BB694FEAC3534FEAD35303F13003FA68D31803F104037B61BB6803F0FF
S32D00010DF80103DBB2002B04D07B684FEA1313DBB20FE07B691B78DBB223F00F03DAB27B684FEA1323DBB203F0F7
S32D00010E200F03DBB21343DBB2DBB27A6913708CE0FB685A6ABB684FEA1323D318F8681946FFF712FD0346FB779F
S32D00010E48FB7F002B7AD1BB684FEA43034FEAC3534FEAD35303F13003FA68D31803F104037B617B68DAB27B699D
S32D00010E701A707B6903F101037A6892B24FEA2222D2B21A7061E0FB685A6ABB684FEAD313D318F8681946FFF7F2
S32D00010E98E7FC0346FB77FB7F002B51D1BB684FEA83034FEAC3534FEAD35303F13003FA68D31803F104037B61EB
S32D00010EC07B6903F103031B784FEA03627B6903F102031B784FEA03431A437B6903F101031B784FEA03231A437D
S32D00010EE87B691B78134303F070437A6813437B607B68DAB27B691A707B6903F101037A6892B24FEA2222D2B275
S32D00010F101A707B6903F102037A684FEA1242D2B21A707B6903F103037A684FEA1262D2B21A700AE04FF0020325
S32D00010F38FB7706E000BF04E000BF02E000BF00E000BFFB684FF001021A71FB7F184607F12007BD4680BD00BF6A
S32D00010F6080B584B000AF786039603B68012B04D97B68DA693B689A4203D84FF00203FB7345E04FF00003FB7326
S32D00010F8833E078683968FFF7C9FD0346BB60BB68002B35D0BB68012B03D14FF00203FB7331E0BB68B3F1FF3F48
S32D00010FB003D14FF00103FB7329E0786839684FF00002FFF799FE0346FB73FB7B002B1DD17B681B69B3F1FF3FA6
S32D00010FD809D07B681B6903F101027B681A617B684FF001025A71BB683B607B68DA693B689A4294BF0023012368
S32D00011000DBB2002BC1D102E000BF00E000BFFB7B184607F11007BD4680BD00BF80B586B000AF786039603B6827
S32D00011028002B0ED17B68DB683B613B69002B04D07B68DA693B699A4218D84FF001033B6114E078683968FFF74A
S32D0001105069FD0346BB60BB68012B02D84FF001036EE07B68DA69BB689A4201D9BB6867E03B683B613B697B61C5
S32D0001107800E000BF7B6903F101037B617B68DA697B699A4209D84FF002037B617A693B699A4202D94FF000038B
S32D000110A04EE078687969FFF73DFD0346BB60BB68002B0FD0BB68B3F1FF3F02D0BB68012B01D1BB683CE07A6956
S32D000110C83B699A42D5D14FF0000335E000BF786879696FF07042FFF70BFE0346FB73FB7B002B09D13B68002BEB
S32D000110F006D0786839687A69FFF7FEFD0346FB73FB7B002B12D17B687A69DA607B681B69B3F1FF3F13D07B685C
S32D000111181B6903F1FF327B681A617B684FF001025A7108E0FB7B012B02D14FF0FF3301E04FF001037B617B69FF
S32D00011140184607F11807BD4680BD00BF80B487B000AF786039607B685B6A03F104033B613B684FEA53227B680E
S32D000111681B689B78B2FBF3F37B613B691B68FB603B6903F104033B61FB68002B02D14FF0000311E07A69FB68BC
S32D000111909A4208D37A69FB68D31A7B613B6903F104033B61E5E700BF3B691A687B69D318184607F11C07BD4633
S32D000111B880BC704780B584B000AF78600B467B807B687A88DA807B689B68FB60FB68012B05D07B681B68DA694C
S32D000111E0FB689A4202D84FF0020373E0FB68002B08D17B681B681B78032B03D17B681B689B6AFB60FB68002B7A
S32D0001120816D17B68FA68DA607B681B681B897A889A4202D34FF0020358E07B681B689A6A7B884FEA13139BB2FF
S32D00011230D2187B681A613FE07B681B689B784FEA03137B811EE07B681B681846F968FFF769FC0346FB60FB68DF
S32D00011258B3F1FF3F02D14FF0010337E0FB68012B05D97B681B68DA69FB689A4202D84FF002032BE07A887B89D4
S32D00011280D31A7B807A887B899A4234BF00230123DBB2002BD7D17B68FA68DA607B681B681846F968FFF71CFC29
S32D000112A802467B884FEA13139BB2D2187B681A617B681B6803F134027B8803F00F034FEA4313D2187B685A6129
S32D000112D04FF00003184607F11007BD4680BD00BF90B585B000AF786039607B68DB8803F101033B813B89002BBE
S32D000112F803D07B681B69002B02D14FF00403E4E03B8903F00F03002B40F0CE807B681B6903F101027B681A6157
S32D000113207B68DB68002B09D17B681B681B893A899A42C0F0BD804FF00403CAE03B894FEA13139BB21A467B683A
S32D000113481B689B7803F1FF331340002B40F0AC807B681A687B68DB6810461946FFF7DEFB0346FB60FB68012B9E
S32D0001137002D84FF00203ACE0FB68B3F1FF3F02D14FF00103A5E07B681B68DA69FB689A4200F282803B68002B1A
S32D0001139802D14FF0040398E07B681A687B68DB6810461946FFF736FE0346FB60FB68002B02D14FF0070388E075
S32D000113C0FB68012B02D14FF0020382E0FB68B3F1FF3F02D14FF001037BE07B681B6818464FF00001FFF740FA0C
S32D000113E80346002B0CBF00230123DBB2002B02D04FF0010369E07B681B6803F1340318464FF000014FF4007256
S32D00011410FFF7A6F97B681C687B681B681846F968FFF75EFB034623634FF00003FB7220E07B681B684FF0010217
S32D000114381A717B681B6818464FF00001FFF710FA0346002B0CBF00230123DBB2002B02D04FF0010339E07B68A7
S32D000114601B681A6B02F101021A63FB7A03F10103FB727B681B689B78FA7A9A422CBF00230123DBB2002BD3D1B1
S32D000114887B681B687A681268116BFA7A8A1A1A637B68FA68DA607B681B681846F968FFF71BFB02467B681A610C
S32D000114B07B683A89DA807B681B6803F134023B8903F00F034FEA4313D2187B685A614FF00003184607F11407EA
S32D000114D8BD4690BD80B586B000AF786078684FF00001FFF767FE0346FB75FB7D002B01D0FB7D47E07B681A68F7
S32D000115007B681B6910461946FFF7AEF90346FB75FB7D002B36D17B685B693B613B691B78FB73FB7B002B03D143
S32D000115284FF00403FB752CE03B6903F10B031B7803F00803002B0DD17B689B69386919464FF00B02FFF72AF946
S32D000115500346002B02D14FF0010301E04FF00003002B11D178684FF00001FFF7B9FE0346FB75FB7D002B14BFB6
S32D0001157800230123DBB2002BBCD102E000BF00E000BFFB7D184607F11807BD4680BD00BF80B584B000AF78609C
S32D000115A078684FF00001FFF709FE0346FB73FB7B002B29D17B681A687B681B6910461946FFF752F90346FB7334
S32D000115C8FB7B002B19D17B685B691B78BB73BB7BE52B14D0BB7B002B11D078684FF00101FFF77AFE0346FB734F
S32D000115F0FB7B002B14BF00230123DBB2002BD9D102E000BF00E000BFFB7B002B23D17B681A687B681B691046B8
S32D000116181946FFF725F90346FB73FB7B002B16D17B685B69BB60B8684FF000014FF02002FFF792F87B689B6907
S32D00011640B86819464FF00B02FFF762F87B681B684FF001021A71FB7B184607F11007BD4680BD00BF80B588B0DE
S32D0001166800AF786039603B681B68FB6003E0FB6803F10103FB60FB681B782F2B03D0FB681B785C2B02D14FF067
S32D00011690010301E04FF00003002BECD17B689B69BB60B8684FF020014FF00B02FFF758F84FF00003FB774FF015
S32D000116B800033B613B697B614FF00803BB61FA687B69D3181B782E2B39D1FA687B69D3181B78BB777B6903F189
S32D000116E001037B61BB7F2E2B0CD17B69022B09D8BA683B69D318BA7F1A703B6903F101033B61E6E700BFBB7F27
S32D000117082F2B08D0BB7F5C2B05D0BB7F202B02D94FF00603C5E0FA687B69D2183B681A60BB6803F10B02BB7FF2
S32D00011730202B02D84FF0240301E04FF0200313704FF00003B1E0FA687B69D3181B78BB777B6903F101037B61B8
S32D00011758BB7F202B68D9BB7F2F2B65D0BB7F5C2B62D0BB7F2E2B03D03A69BB699A4214D3BB69082B02D1BB7F8C
S32D000117802E2B02D04FF006038FE04FF008033B614FF00B03BB61FB7F4FEA8303FB7700BFD1E7BB7F5BB2002B75
S32D000117A80CDAFB7F43F00303FB77BB7FA3F180024CF65443C0F201039B5CBB77BB7F4CF69C00C0F201001946D5
S32D000117D0FFF726F80346002B0CBF00230123DBB2002B02D04FF006035FE0BB7F402B07D9BB7F5A2B04D8FB7FA5
S32D000117F843F00203FB770DE0BB7F602B0AD9BB7F7A2B07D8FB7F43F00103FB77BB7FA3F12003BB77BA683B69B9
S32D00011820D318BA7F1A703B6903F101033B618AE700BFFA687B69D2183B681A60BB7F202B02D84FF0040301E0B0
S32D000118484FF00003BB773B69002B02D14FF0060327E0BB681B78E52B03D1BB684FF005021A70BB69082B03D154
S32D00011870FB7F4FEA8303FB77FB7F03F00303012B03D1BB7F43F01003BB77FB7F03F00C03042B03D1BB7F43F08D
S32D000118980803BB77BB6803F10B03BA7F1A704FF00003184607F12007BD4680BD80B584B000AF786039603B68D1
S32D000118C01B782F2B03D03B681B785C2B08D13B6803F101033B607B684FF000029A6004E07B681B689A697B681F
S32D000118E89A603B681B781F2B0BD878684FF00001FFF760FC0346FB737B684FF000025A6175E03B467868194657
S32D00011910FFF7A8FE0346FB73FB7B002B64D17868FFF7DCFD0346FB737B689B69DB7ABB73FB7B002B21D0FB7BA7
S32D00011938042B57D1BB7B03F02003002B10D07B684FF000029A607B684FF000025A614FF00003FB73BB7B03F0FC
S32D000119600403002B44D13EE0BB7B03F00403002B3ED14FF00503FB733AE0BB7B03F00403002B37D17B685B69B0
S32D00011988BB60BB6803F10B031B7803F01003002B03D14FF00503FB7329E0BB6803F115031B784FEA03239AB22D
S32D000119B0BB6803F114031B7813439BB29BB24FEA0342BB6803F11B031B784FEA032399B2BB6803F11A031B78A0
S32D000119D80B439BB29BB21A437B689A6091E790E700BF04E000BF02E000BF00E000BFFB7B184607F11007BD4647
S32D00011A0080BD00BF80B582B000AF786039607B685A787B6803F13403104619463A684FF0010302F0E3FE0346BB
S32D00011A28002B0CBF00230123DBB2002B02D04FF0030356E07B6893F833324FEA03239AB27B6893F832321343A7
S32D00011A509BB21AB24AF65523CFF6FF739A4202D04FF0020341E07B6893F86D304FEA03627B6893F86C304FEA60
S32D00011A7803431A437B6893F86B304FEA03231A437B6893F86A30134323F07F4244F24613C0F254039A4202D15E
S32D00011AA04FF0000321E07B6893F889304FEA03627B6893F888304FEA03431A437B6893F887304FEA03231A432C
S32D00011AC87B6893F88630134323F07F4244F24613C0F254039A4202D14FF0000301E04FF00103184607F108078F
S32D00011AF0BD4680BD80B592B000AFF860B9601346FB71FB681B68FB62FB6A1B78A3F130033B643B6C092B0DD8CA
S32D00011B18FB6A03F101031B783A2B07D1FB6A03F10203FB62FB68FA6A1A6005E041F26613C1F6FF731B783B6489
S32D00011B403B6C002B02D04FF00B03C9E241F26013C1F6FF733A6C53F82230BB62BB68BA6A1A60BB6A002B02D1C7
S32D00011B684FF00C03B8E2BB6A1B78002B20D0BB6A5B78184603F0BEF8034687F8273097F8273003F00103DBB20B
S32D00011B9083F00103DBB2002B0ED0FB79002B08D097F8273003F00403002B02D04FF00A0396E24FF0000393E24A
S32D00011BB8BB6A4FF000021A703B6CDAB2BB6A5A70BB6A5B78184602F04FFB034687F8273097F8273003F001035E
S32D00011BE0DBB2002B02D04FF0030379E2FB79002B08D097F8273003F00403002B02D04FF00A036DE24FF000037B
S32D00011C08FB63B86AF96BFFF7F9FE034687F8473097F84730012B2AD1BB6A03F5F9733B623B6A03F104031B7817
S32D00011C30002B20D03B6A03F10B031B784FEA03623B6A03F10A031B784FEA03431A433B6A03F109031B784FEA0C
S32D00011C5803231A433B6A03F108031B781343FB63B86AF96BFFF7CAFE034687F8473097F84730032B02D14FF026
S32D00011C8001032DE297F84730002B02D04FF00D0326E2BB6A93F840304FEA03239AB2BB6A93F83F3013439BB23B
S32D00011CA81BB2B3F5007F02D04FF00D0314E2BB6A93F84B304FEA03239AB2BB6A93F84A3013439BB29BB2BB63F4
S32D00011CD0BB6B002B15D1BB6A93F85B304FEA0362BB6A93F85A304FEA03431A43BB6A93F859304FEA03231A43CA
S32D00011CF8BB6A93F858301343BB63BB6ABA6B1A62BB6A93F84430FB77BB6AFA7FDA70FB7F012B05D0FB7F022BAB
S32D00011D2002D04FF00D03DBE1FA7FBB6B02FB03F3BB63BB6A93F84130FB77BB6AFA7F9A70FB7F002B06D0FA7FD8
S32D00011D48FB7F03F1FF331340002B02D04FF00D03C2E1BB6A93F846304FEA03239AB2BB6A93F8453013439BB2F1
S32D00011D709AB2BB6A1A81BB6A1B8903F00F03002B02D04FF00D03ABE1BB6A93F848304FEA03239AB2BB6A93F80F
S32D00011D98473013439BB29BB27B637B6B002B15D1BB6A93F857304FEA0362BB6A93F856304FEA03431A43BB6AD4
S32D00011DC093F855304FEA03231A43BB6A93F8543013437B63BB6A93F843304FEA03239AB2BB6A93F8423013437A
S32D00011DE89BB2BB83BB8B002B02D14FF00D0373E1BA8BBB6BD218BB6A1B894FEA13139BB2D318BB617A6BBB6980
S32D00011E109A4202D24FF00D0362E17A6BBB69D21ABB6A9B78B2FBF3F37B617B69002B02D14FF00D0354E14FF020
S32D00011E38010387F847307A6940F6F5739A4203D94FF0020387F847307A694FF6F5739A4203D94FF0030387F802
S32D00011E6047307B6903F10202BB6ADA61FA6BBB69D218BB6ADA62BA8BFB6BD218BB6A5A6297F84730032B23D12E
S32D00011E88BB6A1B89002B02D04FF00D0324E1BB6A93F863304FEA0362BB6A93F862304FEA03431A43BB6A93F862
S32D00011EB061304FEA03231A43BB6A93F860301A43BB6A9A62BB6ADB694FEA83033B6323E0BB6A1B89002B02D168
S32D00011ED84FF00D0300E1BB6A5A6ABB6BD218BB6A9A6297F84730022B04D1BB6ADB694FEA43030CE0BB6ADA694D
S32D00011F0013464FEA43039B184FEA5302BB6ADB6903F00103D3183B63BB6A1A6A3B6B03F5FE7303F103034FEAC5
S32D00011F2853239A4202D24FF00D03D5E0BB6A4FF0FF321A61BB6A4FF00002DA6097F84730032B40F0A380BB6A04
S32D00011F504FF000025A71BB6A93F865304FEA03239AB2BB6A93F8643013439BB29BB21A46FB6BD218BB6A5A61A2
S32D00011F78BB6A5978BB6A03F13402BB6A5B69084611461A464FF0010302F02CFC0346002B4AD1BB6A93F8333206
S32D00011FA04FEA03239AB2BB6A93F8323213439BB21AB24AF65523CFF6FF739A4238D1BB6A93F837304FEA03625B
S32D00011FC8BB6A93F836304FEA03431A43BB6A93F835304FEA03231A43BB6A93F834301A4345F25223C4F26113E0
S32D00011FF09A421DD1BB6A93F81B324FEA0362BB6A93F81A324FEA03431A43BB6A93F819324FEA03231A43BB6AA9
S32D0001201893F818321A4347F27223C6F241139A4202D14FF0010301E04FF00003002B2DD0BB6A93F823324FEA12
S32D000120400362BB6A93F822324FEA03431A43BB6A93F821324FEA03231A43BB6A93F820321A43BB6ADA60BB6A8A
S32D0001206893F81F324FEA0362BB6A93F81E324FEA03431A43BB6A93F81D324FEA03231A43BB6A93F81C321A43DD
S32D00012090BB6A1A61BB6A97F847201A7041F26413C1F6FF731B8803F101039AB241F26413C1F6FF731A8041F282
S32D000120B86413C1F6FF731A88BB6ADA80BB6A4FF000021A63BB6A4FF000021A71BB6A4FF000029A614FF00003C1
S32D000120E0184607F14807BD4680BD00BF80B582B000AF78600B467B807B68002B08D07B681B78002B04D07B68B5
S32D00012108DB887A889A4202D04FF009030FE07B685B78184602F0EEFD034603F00103DBB2002B02D04FF003035B
S32D0001213001E04FF00003184607F10807BD4680BD80B485B000AF03463960FB71FB79002B02D04FF00B031FE095
S32D00012158FA7941F26013C1F6FF7353F82230FB60FB68002B03D0FB684FF000021A703B68002B03D03B684FF00C
S32D0001218000021A70FA7941F26013C1F6FF73396843F822104FF00003184607F11407BD4680BC704780B592B034
S32D000121A800AFF860B9601346FB71FB684FF000021A60FB7903F01F03FB71FB7923F00103DBB207F1080107F1FF
S32D000121D01C02084611461A46FFF78CFC034687F8473007F110037B6397F84730002B09D1BB6807F11C0210467D
S32D000121F81946FFF75BFB034687F847303B6B3B6497F84730002B06D13B6C002B03D14FF0060387F84730FB7929
S32D0001222003F01C03002B00F0D48097F84730002B12D097F84730042B07D107F11C031846FFF7AAF9034687F818
S32D000122484730FB7943F00803FB713B6B3B6415E03B6C03F10B031B7803F01103002B04D04FF0070387F8473017
S32D0001227008E0FB7903F00403002B03D04FF0080387F8473097F84730002B40F0C580FB7903F00803002B00F078
S32D00012298BF804FF00003FB633B6C03F10E03FA6BD2B21A703B6C03F10F03FA6B92B24FEA2222D2B21A703B6C91
S32D000122C003F11003FA6B4FEA1242D2B21A703B6C03F11103FA6B4FEA1262D2B21A703B6C03F10B034FF000022F
S32D000122E81A703B6C03F11C034FF000021A703B6C03F11D034FF000021A703B6C03F11E034FF000021A703B6C04
S32D0001231003F11F034FF000021A703B6C03F115031B784FEA03239AB23B6C03F114031B7813439BB29BB24FEA5E
S32D0001233803423B6C03F11B031B784FEA032399B23B6C03F11A031B780B439BB29BB21343BB633B6C03F11A03DC
S32D000123604FF000021A703B6C03F11B034FF000021A703B6C03F114034FF000021A703B6C03F115034FF000028E
S32D000123881A70FB694FF001021A71BB6B002B3FD0FB691B6BFB63FB691846B96BFEF7DCFD034687F8473097F841
S32D000123B04730002B30D1FB69BA6B02F1FF32DA60FB691846F96BFEF74FFA034687F8473022E097F84730002B9E
S32D000123D81ED13B6C03F10B031B7803F01003002B04D04FF0040387F8473011E0FB7903F00203002B0CD03B6C5F
S32D0001240003F10B031B7803F00103DBB2002B03D04FF0070387F8473097F84730002B0FD1FB7903F00803002BA9
S32D0001242803D0FB7943F02003FB71FB691A6BFB68DA61FB683A6C1A6297F84730002B51D1FB68FA799A713B6C95
S32D0001245003F115031B784FEA03239AB23B6C03F114031B7813439BB29BB24FEA03423B6C03F11B031B784FEADB
S32D00012478032399B23B6C03F11A031B780B439BB29BB21A43FB681A613B6C03F11F031B784FEA03623B6C03F1CD
S32D000124A01E031B784FEA03431A433B6C03F11D031B784FEA03231A433B6C03F11C031B781A43FB68DA60FB68C9
S32D000124C84FF000029A60FB684FF000029A61FB684FF000025A62FA69FB681A60FB69DA88FB689A8097F8473022
S32D000124F0184607F14807BD4680BD00BF80B58AB000AFF860B9607A603B60BB68BB613B684FF000021A60FB6815
S32D000125181A68FB689B8810461946FFF7E3FD0346FB75FB7D002B01D0FB7DACE1FB689B79DBB25BB2002B02DAB7
S32D000125404FF00203A3E1FB689B7903F00203002B02D14FF007039AE1FB68DA687B68D218FB68DB689A4280F00F
S32D0001256874814FF000037B606FE1FB689B684FEAC3534FEAD353002B40F02E81FB689B684FEA5323DAB2FB68C0
S32D000125901B689B7803F1FF33DBB21340BB75BB7D002B4FD1FB689B68002B12D1FB681B697B627B6A002B23D191
S32D000125B8FB681B6818464FF00001FEF72BFD03467B62FB687A6A1A6116E0FB685B6A002B08D0FB689B68F86884
S32D000125E01946FEF7B3FD03467B6209E0FB681A68FB685B6910461946FEF710FD03467B627B6A002B00F02F8120
S32D000126087B6A012B09D1FB689B7963F07F03DAB2FB689A714FF0020335E17B6AB3F1FF3F09D1FB689B7963F0AD
S32D000126307F03DAB2FB689A714FF0010327E1FB687A6A5A61FB689B7903F04003002B27D0FB681B685978FB68C9
S32D0001265803F12802FB689B69084611461A464FF0010302F0CDF90346002B0CBF00230123DBB2002B09D0FB6854
S32D000126809B7963F07F03DAB2FB689A714FF00103FDE0FB689B7923F04003DAB2FB689A71FB681A68FB685B6955
S32D000126A810461946FEF718FA03463B613B69002B09D1FB689B7963F07F03DAB2FB689A714FF00203DFE0BB7D38
S32D000126D03A69D3183B617B684FEA5323FB61FB69002B4ED0BA7DFB69D218FB681B689B789A4206D9FB681B68F7
S32D000126F89B781A46BB7DD31AFB61FB681B685A78FB69DBB21046B9693A6902F079F90346002B0CBF0023012311
S32D00012720DBB2002B09D0FB689B7963F07F03DAB2FB689A714FF00103A9E0FB689A693B69D21AFB699A4217D2C8
S32D00012748FB6803F12802FB6899693B69CB1A4FEA4323B969CB18104619464FF40072FDF7D3FFFB689B7923F095
S32D000127704003DAB2FB689A71FB694FEA43233B6253E0FB689A693B699A4226D0FB689A68FB68DB689A4212D283
S32D00012798FB681B685A78FB6803F12803104619463A694FF0010302F01DF80346002B02D04FF0010301E04FF08D
S32D000127C00003002B09D0FB689B7963F07F03DAB2FB689A714FF0010359E0FB683A699A61FB689B684FEAC3536B
S32D000127E84FEAD353C3F500733B623A6A7B689A4201D97B683B62FB689B684FEAC3534FEAD35303F12803FA6849
S32D00012810D3181846B9693A6AFDF77AFFFB689B7943F04003DAB2FB689A71BA693B6AD318BB61FB689A683B6A5D
S32D00012838D218FB689A603B681A683B6AD2183B681A607A683B6AD31A7B607B68002B0CBF00230123DBB2002B32
S32D000128607FF487AE00E000BFFB689A68FB68DB689A4203D9FB689A68FB68DA60FB689B7943F02003DAB2FB6881
S32D000128889A714FF00003184607F12807BD4680BD80B586B000AF78607B681A687B689B8810461946FFF71EFCED
S32D000128B00346FB75FB7D002B40F0C8807B689B7903F02003002B00F0C1807B689B7903F04003002B20D07B6891
S32D000128D81B6859787B6803F128027B689B69084611461A464FF0010302F08AF80346002B0CBF00230123DBB2C6
S32D00012900002B02D04FF00103A1E07B689B7923F04003DAB27B689A717B681A687B68DB6910461946FDF7A0FF4C
S32D000129280346FB75FB7D002B40F08C807B681B6A3B613B6903F10B033A6902F10B02127842F02002D2B21A70AF
S32D000129503B6903F11C037A68D268D2B21A703B6903F11D037A68D26892B24FEA2222D2B21A703B6903F11E031B
S32D000129787A68D2684FEA1242D2B21A703B6903F11F037A68D2684FEA1262D2B21A703B6903F11A037A681269D6
S32D000129A0D2B21A703B6903F11B037A68126992B24FEA2222D2B21A703B6903F114037A6812694FEA1242D2B2FB
S32D000129C81A703B6903F115037A6812694FEA124292B24FEA2222D2B21A704FF00003FB603B6903F11603FA683D
S32D000129F0D2B21A703B6903F11703FA6892B24FEA2222D2B21A703B6903F11803FA684FEA1242D2B21A703B6973
S32D00012A1803F11903FA684FEA1262D2B21A707B689B7923F02003DAB27B689A717B681B684FF001021A717B68A5
S32D00012A401B681846FDF788FF0346FB75FB7D184607F11807BD4680BD80B584B000AF78607868FFF719FF0346FE
S32D00012A68FB73FB7B002B03D17B684FF000021A60FB7B184607F11007BD4680BD80B586B000AF03463960FB7133
S32D00012A90FB793B734FF001037B6107F10C0207F11003386811467A69FFF728FD3A697B699A4202D14FF0010357
S32D00012AB801E04FF0FF33184607F11807BD4680BD80B584B000AF786039604FF00003FB6019E07B681B781846F5
S32D00012AE03968FFF7CFFF0346B3F1FF3F14BF00230123DBB2002B02D04FF0FF3311E07B6803F101037B60FB6818
S32D00012B0803F10103FB607B681B78002B0CBF00230123DBB2002BDCD1FB68184607F11007BD4680BD80B485B0BA
S32D00012B3000AF786039604FF00103FB604FF00003BB604FF00003BB6008E0FB687A6802FB03F3FB60BB6803F16C
