S01200002E2E2F46696E616C52756E2E73313938
S32D0000C000000000203DEE000099F1000099F1000099F1000099F1000099F1000000000000000000000000000015
S32D0000C0280000000099F1000099F100000000000099F1000099F1000099F1000099F1000099F1000099F100009A
S32D0000C05099F1000099F1000099F1000099F1000099F1000099F1000099F1000099F1000099F1000099F100005E
S32D0000C07899F1000099F1000099F1000099F1000099F1000099F1000099F1000099F1000099F1000099F1000036
S32D0000C0A099F1000099F1000099F1000099F1000099F1000099F1000099F1000099F1000099F1000099F100000E
S32D0000C0C899F1000099F1000099F1000099F1000099F1000099F1000099F1000099F1000099F1000099F10000E6
S32D0000C0F099F10000E14E010099F1000099F1000099F1000099F1000099F1000099F1000099F1000099F1000018
S32D0000C11899F1000099F1000099F1000099F1000099F1000099F1000099F1000099F1000099F1000099F1000095
S32D0000C14099F1000099F1000099F1000099F100006D26010099F1000099F1000099F1000099F1000099F1000063
S32D0000C16899F1000099F1000099F1000099F1000099F1000099F1000099F1000099F1000099F1000099F1000045
S32D0000C19099F1000099F1000099F1000051220100A520010079210100E9F100002923010099F1000099F10000D3
S32D0000C1B899F1000099F1000099F1000099F1000099F1000099F1000099F1000099F1000099F1000099F10000F5
S32D0000C41081F0004102E000BF83F0004330B54FEA41044FEA430594EA050F08BF90EA020F1FBF54EA000C55EAC6
S32D0000C438020C7FEA645C7FEA655C00F0E2804FEA5454D4EB5555B8BF6D420CDD2C4480EA020281EA030382EA0F
S32D0000C460000083EA010180EA020281EA0303362D88BF30BD11F0004F4FEA01314FF4801C4CEA113102D0404263
S32D0000C48861EB410113F0004F4FEA03334CEA133302D0524263EB430394EA050F00F0A780A4F10104D5F1200E8A
S32D0000C4B00DDB02FA0EFC22FA05F2801841F1000103FA0EF2801843FA05F359410EE0A5F120050EF1200E012A2D
S32D0000C4D803FA0EFC28BF4CF0020C43FA05F3C01851EBE37101F0004507D54FF0000EDCF1000C7EEB00006EEB67
S32D0000C5000101B1F5801F1BD3B1F5001F0CD349085FEA30004FEA3C0C04F101044FEA445212F5800F80F09A8000
S32D0000C528BCF1004F08BF5FEA500C50F1000041EB045141EA050130BD5FEA4C0C404141EB010111F4801FA4F114
S32D0000C5500104E9D191F0000F04BF01460020B1FA81F308BF2033A3F10B03B3F120020CDA0C3208DD02F1140C87
S32D0000C578C2F10C0201FA0CF021FA02F10CE002F11402D8BFC2F1200C01FA02F120FA0CFCDCBF41EA0C019040B1
S32D0000C5A0E41AA2BF01EB0451294330BD6FEA04041F3C1CDA0C340EDC04F11404C4F1200220FA04F001FA02F3B6
S32D0000C5C840EA030021FA04F345EA030130BDC4F10C04C4F1200220FA02F001FA04F340EA0300294630BD21FAA8
S32D0000C5F004F0294630BD94F0000F83F4801306BF81F480110134013D4EE77FEA645C18BF7FEA655C29D094EA1C
S32D0000C618050F08BF90EA020F05D054EA000C04BF1946104630BD91EA030F1EBF0021002030BD5FEA545C05D1A3
S32D0000C6404000494128BF41F0004130BD14F580043CBF01F5801130BD01F0004545F0FE4141F470014FF0000031
S32D0000C66830BD7FEA645C1ABF194610467FEA655C1CBF0B46024650EA013406BF52EA033591EA030F41F40021D7
S32D0000C69030BD00BF90F0000F04BF0021704730B54FF4806404F132044FF000054FF0000150E700BF90F0000F66
S32D0000C6B804BF0021704730B54FF4806404F1320410F0004548BF40424FF000013EE700BF42004FEAE2014FEAF9
S32D0000C6E031014FEA02701FBF12F07F4393F07F4F81F06051704792F0000F14BF93F07F4F704730B54FF460741B
S32D0000C70801F0004521F0004120E700BF50EA010208BF704730B54FF000050AE050EA010208BF704730B511F046
S32D0000C730004502D5404261EB41014FF4806404F132045FEA915C3FF4DCAE4FF003025FEADC0C18BF03325FEAA0
S32D0000C758DC0C18BF033202EBDC02C2F1200300FA03FC20FA02F001FA03FE40EA0E0021FA02F11444C1E600BF19
S32D0000C78070B54FF0FF0C4CF4E06C1CEA11541DBF1CEA135594EA0C0F95EA0C0F00F0DEF82C4481EA030621EAF3
S32D0000C7A84C5123EA4C5350EA013518BF52EA033541F4801143F4801338D0A0FB02CE4FF00005E1FB02E506F05F
S32D0000C7D00042E0FB03E54FF00006E1FB03569CF0000F18BF4EF0010EA4F1FF04B6F5007F64F5407404D25FEA0F
S32D0000C7F84E0E6D4146EB060642EAC62141EA55514FEAC52040EA5E504FEACE2EB4F1FD0C88BFBCF5E06F1ED8D2
S32D0000C820BEF1004F08BF5FEA500E50F1000041EB045170BD06F0004646EA010140EA020081EA0301B4EB5C0487
S32D0000C848C2BFD4EB0C0541EA045170BD41F480114FF0000E013C00F3AB8014F1360FDEBF002001F0004170BDF0
S32D0000C870C4F10004203C35DA0C341BDC04F11404C4F1200500FA05F320FA04F001FA05F240EA020001F0004207
S32D0000C89821F0004110EBD37021FA04F642EB06015EEA430E08BF20EAD37070BDC4F10C04C4F1200500FA04F32F
S32D0000C8C020FA05F001FA04F240EA020001F0004110EBD37041F100015EEA430E08BF20EAD37070BDC4F12005C7
S32D0000C8E800FA05F24EEA020E20FA04F301FA05F243EA020321FA04F001F0004121FA04F220EA020000EBD37028
S32D0000C9105EEA430E08BF20EAD37070BD94F0000F0FD101F00046400041EB010111F4801F08BF013CF7D041EA6D
S32D0000C938060195F0000F18BF704703F00046520043EB030313F4801F08BF013DF7D043EA0603704794EA0C0FF1
S32D0000C9600CEA135518BF95EA0C0F0CD050EA410618BF52EA4306D1D181EA030101F000414FF0000070BD50EA38
S32D0000C988410606BF1046194652EA430619D094EA0C0F02D150EA013613D195EA0C0F05D152EA03361CBF10467B
S32D0000C9B019460AD181EA030101F0004141F0FE4141F470014FF0000070BD41F0FE4141F4780170BD70B54FF04D
S32D0000C9D8FF0C4CF4E06C1CEA11541DBF1CEA135594EA0C0F95EA0C0F00F0A7F8A4EB050481EA030E52EA03359B
S32D0000CA004FEA013100F088804FEA03334FF0805545EA131343EA12634FEA022245EA111545EA10654FEA002676
S32D0000CA280EF000419D4208BF964244F1FD0404F5407402D25B084FEA3202B61A65EB03055B084FEA32024FF461
S32D0000CA5080104FF4002CB6EB020E75EB030E22BFB61A754640EA0C005B084FEA3202B6EB020E75EB030E22BF22
S32D0000CA78B61A754640EA5C005B084FEA3202B6EB020E75EB030E22BFB61A754640EA9C005B084FEA3202B6EBEA
S32D0000CAA0020E75EB030E22BFB61A754640EADC0055EA060E18D04FEA051545EA16754FEA06164FEAC30343EAAC
S32D0000CAC852734FEAC2025FEA1C1CC0D111F4801F0BD141EA00014FF000004FF0004CB6E711F4801F04BF0143AE
S32D0000CAF00020B4F1FD0C88BFBCF5E06F3FF6AFAEB5EB030C04BFB6EB020C5FEA500C50F1000041EB045170BDBC
S32D0000CB180EF0004E4EEA113114EB5C04C2BFD4EB0C0541EA045170BD41F480114FF0000E013C90E645EA060EC3
S32D0000CB408DE60CEA135594EA0C0F08BF95EA0C0F3FF43BAF94EA0C0F0AD150EA01347FF434AF95EA0C0F7FF499
S32D0000CB6825AF104619462CE795EA0C0F06D152EA03353FF4FDAE1046194622E750EA410618BF52EA43067FF432
S32D0000CB90C5AE50EA41047FF40DAF52EA43057FF4EBAE12E74FF0FF3C06E000BF4FF0010C02E000BF4FF0010C75
S32D0000CBB84DF804CD4FEA410C7FEA6C5C4FEA430C18BF7FEA6C5C1BD001B050EA410C0CBF52EA430C91EA030FEC
S32D0000CBE002BF90EA020F0020704710F1000F91EA030F58BF994208BF90422CBFD8176FEAE37040F0010070476E
S32D0000CC084FEA410C7FEA6C5C02D150EA013C07D14FEA430C7FEA6C5CD6D152EA033CD3D05DF8040B704700BFCD
S32D0000CC308446104662468C461946634600E000BF01B5FFF7B7FF002848BF10F1000F01BD4DF808EDFFF7F4FF13
S32D0000CC580CBF012000205DF808FB00BF4DF808EDFFF7EAFF34BF012000205DF808FB00BF4DF808EDFFF7E0FF18
S32D0000CC8094BF012000205DF808FB00BF4DF808EDFFF7CEFF94BF012000205DF808FB00BF4DF808EDFFF7C4FF40
S32D0000CCA834BF012000205DF808FB00BF4FEA410212F5001215D211D56FF47873B3EB625212D94FEAC12343F0D6
S32D0000CCD0004343EA505311F0004F23FA02F018BF404270474FF00000704750EA013005D111F0004008BF6FF016
S32D0000CCF8004070474FF00000704700BF4A0011D212F5001211D20DD56FF47873B3EB62520ED44FEAC12343F085
S32D0000CD20004343EA505323FA02F070474FF00000704750EA013002D14FF0FF3070474FF0000070474FEA410241
S32D0000CD48B2F1E04324BFB3F5001CDCF1FE5C0DD901F0004C4FEAC0024CEA5070B2F1004F40EB830008BF20F09E
S32D0000CD700100704711F0804F21D113F13872BCBF01F00040704741F480114FEA5252C2F11802C2F1200C10FAB1
S32D0000CD980CF320FA02F018BF40F001004FEAC1234FEAD32303FA0CFC40EA0C0023FA02F34FEA4303CCE77FEA26
S32D0000CDC0625307D150EA01331EBF4FF0FE4040F44000704701F0004040F0FE4040F40000704700BF80F00040CC
S32D0000CDE802E000BF81F0004142001FBF5FEA410392EA030F7FEA226C7FEA236C6AD04FEA1262D2EB1363C1BF06
S32D0000CE10D218414048404140B8BF5B42192B88BF704710F0004F40F4000020F07F4018BF404211F0004F41F4FA
S32D0000CE38000121F07F4118BF494292EA030F3FD0A2F1010241FA03FC10EB0C00C3F1200301FA03F100F000432B
S32D0000CE6002D5494260EB4000B0F5000F13D3B0F1807F06D340084FEA310102F10102FE2A51D2B1F1004F40EB94
S32D0000CE88C25008BF20F0010040EA03007047490040EB000010F4000FA2F10102EDD1B0FA80FCACF1080CB2EB5F
S32D0000CEB00C0200FA0CF0AABF00EBC25052421843BCBFD0401843704792F0000F81F4000106BF80F400000132EB
S32D0000CED8013BB5E74FEA41037FEA226C18BF7FEA236C21D092EA030F04D092F0000F08BF0846704790EA010FD7
S32D0000CF001CBF0020704712F07F4F04D1400028BF40F00040704712F100723CBF00F50000704700F0004343F0DC
S32D0000CF28FE4040F4000070477FEA226216BF08467FEA23630146420206BF5FEA412390EA010F40F480007047C1
S32D0000CF504FF0000304E000BF10F0004348BF40425FEA000C08BF704743F0964301464FF000001CE050EA010264
S32D0000CF7808BF70474FF000030AE000BF50EA010208BF704711F0004302D5404261EB41015FEA010C02BF84465B
S32D0000CFA00146002043F0B64308BFA3F18053A3F50003BCFA8CF2083AA3EBC25310DB01FA02FC634400FA02FC6B
S32D0000CFC8C2F12002BCF1004F20FA02F243EB020008BF20F00100704702F1200201FA02FCC2F1200250EA4C0034
S32D0000CFF021FA02F243EB020008BF20EADC7070474FF0FF0C1CEAD0521EBF1CEAD15392EA0C0F93EA0C0F6FD019
S32D0000D0181A4480EA010C400218BF5FEA41211ED04FF0006343EA501043EA5111A0FB01310CF00040B1F5000FE7
S32D0000D0403EBF490041EAD3715B0040EA010062F17F02FD2A1DD8B3F1004F40EBC25008BF20F00100704790F058
S32D0000D068000F0CF0004C08BF49024CEA502040EA51207F3AC2BFD2F1FF0340EAC250704740F400004FF0000388
S32D0000D090013A5DDC12F1190FDCBF00F000407047C2F10002410021FA02F1C2F1200200FA02FC5FEA310040F1D5
S32D0000D0B8000053EA4C0308BF20EADC70704792F0000F00F0004C02BF400010F4000F013AF9D040EA0C0093F04C
S32D0000D0E0000F01F0004C02BF490011F4000F013BF9D041EA0C018FE70CEAD15392EA0C0F18BF93EA0C0F0AD00B
S32D0000D10830F0004C18BF31F0004CD8D180EA010000F00040704790F0000F17BF90F0004F084691F0000F91F0BB
S32D0000D130004F14D092EA0C0F01D142020FD193EA0C0F03D14B0218BF084608D180EA010000F0004040F0FE4051
S32D0000D15840F40000704740F0FE4040F4400070474FF0FF0C1CEAD0521EBF1CEAD15392EA0C0F93EA0C0F69D044
S32D0000D180A2EB030280EA010C49024FEA402037D04FF0805343EA111143EA10130CF000408B4238BF5B0042F14E
S32D0000D1A87D024FF4000C8B4224BF5B1A40EA0C00B3EB510F24BFA3EB510340EA5C00B3EB910F24BFA3EB9103A4
S32D0000D1D040EA9C00B3EBD10F24BFA3EBD10340EADC001B0118BF5FEA1C1CE0D1FD2A3FF650AF8B4240EBC25018
S32D0000D1F808BF20F0010070470CF0004C4CEA50207F32C2BFD2F1FF0340EAC250704740F400004FF00003013AF1
S32D0000D22037E792F0000F00F0004C02BF400010F4000F013AF9D040EA0C0093F0000F01F0004C02BF490011F4C9
S32D0000D248000F013BF9D041EA0C0195E70CEAD15392EA0C0F08D142027FF47DAF93EA0C0F7FF470AF084676E7AE
S32D0000D27093EA0C0F04D14B023FF44CAF08466EE730F0004C18BF31F0004CCAD130F000427FF45CAF31F0004376
S32D0000D2987FF43CAF5FE700BF4FF0FF3C06E000BF4FF0010C02E000BF4FF0010C4DF804CD4FEA40024FEA41039F
S32D0000D2C07FEA226C18BF7FEA236C11D001B052EA530C18BF90EA010F58BFB2EB030088BFC81738BF6FEAE1706E
S32D0000D2E818BF40F0010070477FEA226C02D15FEA402C05D17FEA236CE4D15FEA412CE1D05DF8040B704700BF16
S32D0000D310844608466146FFE70FB5FFF7C9FF002848BF10F1000F0FBD4DF808EDFFF7F4FF0CBF012000205DF839
S32D0000D33808FB00BF4DF808EDFFF7EAFF34BF012000205DF808FB00BF4DF808EDFFF7E0FF94BF012000205DF8A9
S32D0000D36008FB00BF4DF808EDFFF7D2FF94BF012000205DF808FB00BF4DF808EDFFF7C8FF34BF012000205DF8B1
S32D0000D38808FB00BF4FEA4002B2F1FE4F0FD34FF09E03B3EB12620DD94FEA002343F0004310F0004F23FA02F060
S32D0000D3B018BF404270474FF00000704712F1610F01D1420205D110F0004008BF6FF0004070474FF00000704797
S32D0000D3D880B590B000AF41F22C40C1F6FF704FF0000106F0E3F841F22C40C1F6FF704FF0010106F02DF941F2D8
S32D0000D4002C40C1F6FF704FF0000106F011F94FF000004FF07E5101F5E00104F0ADFA07F104031846A2494FF0E6
S32D0000D428000201F071FA41F22C40C1F6FF7046F28C51C0F2010106F069FA07F1040318469A499B4A01F08CFAF5
S32D0000D4504FF000004FF0804101F5101104F08CFA41F22C40C1F6FF7046F2A851C0F2010106F050FA07F10403F5
S32D0000D47818468F498E4A01F073FA4FF000004FF0804101F5101104F073FA41F22C40C1F6FF7046F2C451C0F29F
S32D0000D4A0010106F037FA07F1040318468349824A01F05AFA4FF000004FF0804101F5B20104F05AFA41F29440C4
S32D0000D4C8C1F6FF7007F006FE0346FB6241F22C40C1F6FF7046F2E051C0F2010106F016FA4FF00F004FF06E018B
S32D0000D4F000F0BAFC6CA1D1E9000104F03DFA41F22C40C1F6FF7046F2F051C0F2010106F001FA6B4800F022FFCE
S32D0000D51863A1D1E9000104F02BFA41F22C40C1F6FF7046F2FC51C0F2010106F0EFF94FF019004FF0550100F054
S32D0000D54061FD59A1D1E9000104F016FA41F22C40C1F6FF7046F20861C0F2010106F0DAF9584800F0A1FF50A1A2
S32D0000D568D1E9000104F004FA41F22C40C1F6FF7046F2E051C0F2010106F0C8F94FF00F004FF0550100F06CFC14
S32D0000D59045A1D1E9000104F0EFF941F22C40C1F6FF7046F21861C0F2010106F0B3F94FF014004FF0460100F05B
S32D0000D5B8C5FC3BA1D1E9000104F0DAF941F22C40C1F6FF7046F20861C0F2010106F09EF93B4800F065FF32A1D5
S32D0000D5E0D1E9000104F0C8F94FF0000387F83F304FF00003BB631EE041F22C40C1F6FF7046F22461C0F20101E9
S32D0000D60806F084F94FF014004FF00A0100F028FC4FF000004FF07E5101F5C00104F0A8F9BB6B03F10103BB63FB
S32D0000D630254800F039FF41F29440C1F6FF7007F05FFD0346002B05D1BB6B0E2B02DC4FF0010301E04FF00003CA
S32D0000D658002BCDD141F22C40C1F6FF7046F23861C0F2010106F052F941F22C10C1F6FF70144901F091FE41F2AB
S32D0000D6802410C1F6FF700B4901F08AFE4FF000004FF07E5101F5F00104F06EF900F0BCFB2DE000BFAFF3008031
S32D0000D6A89A9999999999C93F000000000000A041000020410000A040000090410000F041000087430000B041D6
S32D0000D6D0DDA1D1E9000104F04FF941F29440C1F6FF7007F00DFD0346022B14BF00230123DBB2002B03D04FF02F
S32D0000D6F8010387F83F3097F83F3083F00103DBB2002BE1D141F22C40C1F6FF7046F24861C0F2010106F0FAF8F1
S32D0000D72000F07AFBCAA1D1E9000104F025F96FF013004FF0140100F097FBC5A1D1E9000104F01AF941F22C402F
S32D0000D748C1F6FF7046F2FC51C0F2010106F0DEF84FF019004FF0780100F050FCBAA1D1E9000104F005F941F201
S32D0000D7702C40C1F6FF7046F20861C0F2010106F0C9F8B54800F090FEB1A1D1E9000104F0F3F841F22C40C1F630
S32D0000D798FF7046F2E051C0F2010106F0B7F84FF00F004FF0410100F05BFBA7A1D1E9000104F0DEF841F22C40B1
S32D0000D7C0C1F6FF7046F2FC51C0F2010106F0A2F84FF019004FF00A0100F014FC9CA1D1E9000104F0C9F841F2CA
S32D0000D7E82C40C1F6FF7046F20861C0F2010106F08DF8984800F054FE93A1D1E9000104F0B7F841F22C40C1F6A7
S32D0000D810FF7046F2E051C0F2010106F07BF84FF01E004FF0C80100F01FFB89A1D1E9000104F0A2F841F22C4074
S32D0000D838C1F6FF7046F25861C0F2010106F066F841F22C40C1F6FF7046F20861C0F2010106F05CF87F4800F088
S32D0000D86023FE7BA1D1E9000104F086F841F22C40C1F6FF7046F2FC51C0F2010106F04AF84FF019004FF023013F
S32D0000D88800F0BCFB70A1D1E9000104F071F841F22C40C1F6FF7046F20861C0F2010106F035F86D4800F0FCFDC7
S32D0000D8B067A1D1E9000104F05FF841F22C40C1F6FF7046F2E051C0F2010106F023F84FF00F004FF0900100F03B
S32D0000D8D8C7FA5DA1D1E9000104F04AF841F22C40C1F6FF7046F20861C0F2010106F00EF8594800F0D5FD54A104
S32D0000D900D1E9000104F038F841F22C40C1F6FF7046F2FC51C0F2010105F0FCFF4FF019004FF0500100F06EFBEB
S32D0000D92849A1D1E9000104F023F841F22C40C1F6FF7046F20861C0F2010105F0E7FF474800F0AEFD40A1D1E963
S32D0000D950000104F011F84FF000037B631BE06FF00E004FF0050100F07FFA39A1D1E9000104F002F841F22C4053
S32D0000D978C1F6FF7046F20861C0F2010105F0C6FF364800F08DFD7B6B03F101037B637B6B182BCCBF002301239D
S32D0000D9A0DBB2002BDBD141F22C40C1F6FF7046F20861C0F2010105F0ADFF2A4800F074FD41F22C40C1F6FF70A2
S32D0000D9C846F29861C0F2010105F0A0FF244800F0C1FC1DA1D1E9000103F0CAFF41F22C40C1F6FF7046F2A0616C
S32D0000D9F0C0F2010105F08EFF1C4800F009FC14A1D1E9000103F0B8FF41F22C40C1F6FF7046F2A861C0F20101A6
S32D0000DA1805F07CFFFB6A012B28D141F23410C1F6FF70114905F060F841F22C40C1F6FF7046F2B461C0F20101DC
S32D0000DA4005F068FF27E000BF333333333333E33F9A9999999999C93F000050420000B44200000643000061432E
S32D0000DA6800007A420000C4410000344341F23410C1F6FF70DC4905F037F841F22C40C1F6FF7046F2BC61C0F2A6
S32D0000DA90010105F03FFF41F22C40C1F6FF7046F2C461C0F2010105F035FFCFA1D1E9000103F062FF41F22C4016
S32D0000DAB8C1F6FF7046F2D461C0F2010105F026FF4FF00F004FF00F0100F0CAF9C4A1D1E9000103F04DFF41F2FD
S32D0000DAE03410C1F6FF7040F2953104F0C3FF41F23410C1F6FF7040F6C41104F0D9FF41F29440C1F6FF7007F068
S32D0000DB08E9FA0346FB62B6A1D1E9000103F030FFFB6A012B11D141F23410C1F6FF70B24904F0E2FF41F22C40B3
S32D0000DB30C1F6FF7046F2B461C0F2010105F0EAFE10E041F23410C1F6FF70AA4904F0D0FF41F22C40C1F6FF70BB
S32D0000DB5846F2BC61C0F2010105F0D8FE4FF000033B631EE06FF00E004FF0050100F078F94FF000004FF07E518D
S32D0000DB8001F5C00103F0F8FE41F22C40C1F6FF7046F20861C0F2010105F0BCFE964800F083FC3B6B03F1010323
S32D0000DBA83B633B6B032BCCBF00230123DBB2002BD8D141F22C40C1F6FF7046F20861C0F2010105F0A3FE8A4828
S32D0000DBD000F06AFC41F22C40C1F6FF7046F29861C0F2010105F096FE844800F0B7FB7EA1D1E9000103F0C0FEA5
S32D0000DBF841F22C40C1F6FF7046F2A061C0F2010105F084FE7C4800F059FA75A1D1E9000103F0AEFE41F22C40C0
S32D0000DC20C1F6FF7046F2A861C0F2010105F072FEFB6A012B11D141F23410C1F6FF70714904F056FF41F22C40A4
S32D0000DC48C1F6FF7046F2B461C0F2010105F05EFE10E041F23410C1F6FF70694904F044FF41F22C40C1F6FF70FB
S32D0000DC7046F2BC61C0F2010105F04CFE41F22C40C1F6FF7046F2E461C0F2010105F042FE55A1D1E9000103F06F
S32D0000DC986FFE41F22C40C1F6FF7046F2E051C0F2010105F033FE4FF00F004FF0960100F0D7F84BA1D1E900015F
S32D0000DCC003F05AFE41F22C40C1F6FF7046F20861C0F2010105F01EFE474800F0E5FB41F22C40C1F6FF7046F264
S32D0000DCE8FC51C0F2010105F011FE4FF019004FF0500100F083F93AA1D1E9000103F038FE41F22C40C1F6FF7031
S32D0000DD1046F20861C0F2010105F0FCFD3B4800F0C3FB41F22C40C1F6FF7046F2E051C0F2010105F0EFFD4FF06F
S32D0000DD380F004FF0960100F093F829A1D1E9000103F016FE41F22C40C1F6FF7046F20861C0F2010105F0DAFDEB
S32D0000DD602A4800F0A1FB41F22C40C1F6FF7046F21861C0F2010105F0CDFD4FF019004FF0280100F0DFF818A16E
S32D0000DD88D1E9000103F0F4FD41F22C40C1F6FF7046F20861C0F2010105F0B8FD1A4800F07FFB41F22C40C1F6E8
S32D0000DDB0FF7046F2E051C0F2010105F0ABFD4FF00F004FF4967100F04FF807A1D1E9000103F0D2FD4FF00003E6
S32D0000DDD8184607F14007BD4680BD00BFAFF300809A9999999999C93F00000000000034430000614300007A42E9
S32D0000DE000000C441000020430000A04100009D4300008743AFF3008080B500AF41F22410C1F6FF7001F06CFA17
S32D0000DE2841F22C10C1F6FF7001F066FA02A1D1E9000103F09DFD80BD9A9999999999C93F80B500AF41F24410B4
S32D0000DE50C1F6FF7004F0E4FA41F24010C1F6FF7004F0DEFA80BD00BFF0B585B000AF78603960FFF7E9FF4FF024
S32D0000DE780003FB607B68002B03DA6FF00303FB6002E04FF00403FB607B684FEA4302FB68D3181846FFF75CF899
S32D0000DEA0034641F22C10C1F6FF70194601F078FA7B684FEA43031846FFF74EF8034641F22410C1F6FF70194683
S32D0000DEC801F06AFA00BF41F24010C1F6FF7004F08FFA044641F24410C1F6FF7004F088FA0346E3181846FEF7EE
S32D0000DEF0E1FB02460B46104619464FF000024FF08043FEF767FD02460B4614461D463868FEF7D0FB02460B46EF
S32D0000DF184FF001010E4620462946FEF79FFE0346002B02D14FF000031E46F3B2002BCAD1FFF76EFF07F1140711
S32D0000DF40BD46F0BDF0B583B000AF78603960FFF77BFF7A684FF6FE73CFF6FF739B1A1846FEF7FAFF034641F24F
S32D0000DF682C10C1F6FF70194601F016FA7868FEF7EFFF034641F22410C1F6FF70194601F00BFA00BF41F2401099
S32D0000DF90C1F6FF7004F030FA044641F24410C1F6FF7004F029FA0346E3181846FEF782FB02460B4610461946AF
S32D0000DFB84FF000024FF08043FEF708FD02460B4614461D463868FEF771FB02460B464FF001010E4620462946A4
S32D0000DFE0FEF740FE0346002B02D14FF000031E46F3B2002BCAD1FFF70FFF07F10C07BD46F0BD00BFF0B583B032
S32D0000E00800AF78603960FFF71BFF7B6803F102031846FEF79DFF034641F22C10C1F6FF70194601F0B9F97B682C
S32D0000E030C3F100031846FEF78FFF034641F22410C1F6FF70194601F0ABF900BF41F24010C1F6FF7004F0D0F93B
S32D0000E058044641F24410C1F6FF7004F0C9F90346E3181846FEF722FB02460B46104619464FF000024FF08043A8
S32D0000E080FEF7A8FC02460B4614461D463868FEF711FB02460B464FF001010E4620462946FEF7E0FD0346002B99
S32D0000E0A802D14FF000031E46F3B2002BCAD1FFF7AFFE07F10C07BD46F0BD00BFB0B582B000AF786056E041F2C2
S32D0000E0D09440C1F6FF7007F025F803464FF00102144618467968FFF747F90346002B02D14FF000031C46E3B23A
S32D0000E0F8002B14D041F22C10C1F6FF703F4901F04BF941F22410C1F6FF703C4901F044F94FF0640003F010FCB7
S32D0000E120FFF77AFE2AE041F29440C1F6FF7006F0F9FF03464FF00102144618467968FFF7FDF80346002B02D1E8
S32D0000E1484FF000031C46E3B2002B13D041F22C10C1F6FF702A4901F01FF941F22410C1F6FF70274901F018F952
S32D0000E1704FF0640003F0E4FBFFF74EFE41F29440C1F6FF7006F0CEFF054678681F49FEF72DFE03464FF001029C
S32D0000E198144628461946FFF7CDF80346002B02D14FF000031C46E3B2002B1BD141F29440C1F6FF7006F0B2FF0C
S32D0000E1C0054678681149FEF713FE03464FF00102144628461946FFF7CFF80346002B02D14FF000031C46E3B2B7
S32D0000E1E8002B02D04FF0010301E04FF00003002B7FF469AF07F10807BD46B0BD000040C1000040410000803F38
S32D0000E210B0B582B000AF786056E041F29440C1F6FF7006F07FFF03464FF00102144618467968FFF7A1F80346EF
S32D0000E238002B02D14FF000031C46E3B2002B14D041F22C10C1F6FF703F4901F0A5F841F22410C1F6FF703C49B5
S32D0000E26001F09EF84FF0640003F06AFBFFF7D4FD2AE041F29440C1F6FF7006F053FF03464FF001021446184685
S32D0000E2887968FFF757F80346002B02D14FF000031C46E3B2002B13D041F22C10C1F6FF702A4901F079F841F217
S32D0000E2B02410C1F6FF70274901F072F84FF0640003F03EFBFFF7A8FD41F29440C1F6FF7006F028FF054678683C
S32D0000E2D81F49FEF787FD03464FF00102144628461946FFF727F80346002B02D14FF000031C46E3B2002B1BD1D9
S32D0000E30041F29440C1F6FF7006F00CFF054678681149FEF76DFD03464FF00102144628461946FFF729F80346CB
S32D0000E328002B02D14FF000031C46E3B2002B02D04FF0010301E04FF00003002B7FF469AF07F10807BD46B0BD00
S32D0000E35000004041000040C10000803FB0B582B000AF786056E041F29440C1F6FF7006F0E9FE03464FF0010275
S32D0000E378144618467968FEF7FBFF0346002B02D14FF000031C46E3B2002B14D041F22C10C1F6FF703F4900F053
S32D0000E3A0FFFF41F22410C1F6FF703C4900F0F8FF4FF0640003F0C4FAFFF72EFD2AE041F29440C1F6FF7006F0B6
S32D0000E3C8BDFE03464FF00102144618467968FEF7B1FF0346002B02D14FF000031C46E3B2002B13D041F22C10A6
S32D0000E3F0C1F6FF702A4900F0D3FF41F22410C1F6FF70274900F0CCFF4FF0640003F098FAFFF702FD41F29440C8
S32D0000E418C1F6FF7006F092FE054678681F49FEF7E1FC03464FF00102144628461946FEF781FF0346002B02D157
S32D0000E4404FF000031C46E3B2002B1BD141F29440C1F6FF7006F076FE054678681149FEF7C7FC03464FF00102FF
S32D0000E468144628461946FEF783FF0346002B02D14FF000031C46E3B2002B02D04FF0010301E04FF00003002BDA
S32D0000E4907FF469AF07F10807BD46B0BD00004041000040C10000803FB0B584B000AF7860DFF83C34FB60786879
S32D0000E4B8DFF83814FEF734FF0346002B40F006824FF001031C467868DFF82414FEF732FF0346002B02D14FF07F
S32D0000E4E000031C46E3B2002B0FD04FF001031C467868FF49FEF740FF0346002B02D14FF000031C46E3B2002B5E
S32D0000E50821D14FF001031C467868FA49FEF712FF0346002B02D14FF000031C46E3B2002B00F092814FF0010334
S32D0000E5301C467868F249FEF71FFF0346002B02D14FF000031C46E3B2002B00F08181ED4B7B6041F29440C1F6BF
S32D0000E558FF7006F003FE03464FF0010214461846E349FEF7F1FE0346002B02D14FF000031C46E3B2002B19D048
S32D0000E58041F29440C1F6FF7006F0ECFD03464FF0010214461846D649FEF7E4FE0346002B02D14FF000031C463D
S32D0000E5A8E3B2002B02D04FF0010301E04FF00003002B0DD041F29440C1F6FF7006F0CEFD03461846CD49FEF7A5
S32D0000E5D00FFC0346FB60B0E041F29440C1F6FF7006F0C0FD0346C5481946FEF7FFFB0346C4481946FEF7FAFBBC
S32D0000E5F80346FB609DE04FF001031C46F8687968FEF7B6FE0346002B02D14FF000031C46E3B2002B14D041F283
S32D0000E6202C10C1F6FF70B84900F0BAFE41F22410C1F6FF70B54900F0B3FE4FF0C80003F07FF9FFF7E9FB23E046
S32D0000E6484FF001031C46F8687968FEF773FE0346002B02D14FF000031C46E3B2002B13D041F22C10C1F6FF7035
S32D0000E670A64900F095FE41F22410C1F6FF70A24900F08EFE4FF0C80003F05AF9FFF7C4FB41F29440C1F6FF70E7
S32D0000E69806F064FD03464FF00102144618469449FEF752FE0346002B02D14FF000031C46E3B2002B19D041F2D1
S32D0000E6C09440C1F6FF7006F04DFD03464FF00102144618468649FEF745FE0346002B02D14FF000031C46E3B228
S32D0000E6E8002B02D04FF0010301E04FF00003002B0DD041F29440C1F6FF7006F02FFD034618467E49FEF770FB7C
S32D0000E7100346FB6011E041F29440C1F6FF7006F021FD034675481946FEF760FB034675481946FEF75BFB034657
S32D0000E738FB6078686E49FEF755FB03464FF0010214461846F968FEF713FE0346002B02D14FF000031C46E3B252
S32D0000E760002B14D178686449FEF742FB03464FF0010214461846F968FEF7E0FD0346002B02D14FF000031C465B
S32D0000E788E3B2002B02D04FF0010301E04FF00003002B7FF430AFA3E041F29440C1F6FF7006F0DCFC03464FF0E8
S32D0000E7B00102144618467968FEF7DEFD0346002B02D14FF000031C46E3B2002B14D041F22C10C1F6FF704C4916
S32D0000E7D800F0E2FD41F22410C1F6FF70494900F0DBFD4FF0C80003F0A7F8FFF711FB2CE041F29440C1F6FF7089
S32D0000E80006F0B0FC03464FF00102144618467968FEF794FD0346002B02D14FF000031C46E3B2002B15D041F2DB
S32D0000E8282C10C1F6FF70374900F0B6FD41F22410C1F6FF70324900F0AFFD4FF0C80003F07BF8FFF7E5FA00E077
S32D0000E85000BF41F29440C1F6FF7006F083FC054678682549FEF7C2FA03464FF00102144628461946FEF762FDE9
S32D0000E8780346002B02D14FF000031C46E3B2002B1BD141F29440C1F6FF7006F067FC054678681749FEF7A8FA33
S32D0000E8A003464FF00102144628461946FEF764FD0346002B02D14FF000031C46E3B2002B02D04FF0010301E0A1
S32D0000E8C84FF00003002B7FF467AF09E041F22C40C1F6FF7046F2F861C0F2010105F016F807F11007BD46B0BDB7
S32D0000E8F000000000000080BF000000400000B4430000B3430000A040000040C10000404180B485B000AFF860BC
S32D0000E918B9607A60FB68BA689A60FB68BA689A61FB68BA681A60FB68BA681A61FB687A681A62FB68BA68DA6060
S32D0000E940FB68BA68DA61FB68BA685A60FB68BA685A61FB687A685A62FB68184607F11407BD4680BC704700BFE0
S32D0000E96890B589B000AFF860B9607A6003F02CF802460B4610461946FEF7E0F90246FB681A6003F021F802465D
S32D0000E9900B4610461946FEF7D5F90246FB685A604FF000004FF0804101F5002102F0E4FFF86800F0A1F84FF0D8
S32D0000E9B80103FB7789E04AA1D1E9000102F0D8FF41F24410C1F6FF7003F012FD044641F24010C1F6FF7003F04E
S32D0000E9E00BFD0346E3181846FDF764FE02460B46104619464FF000024FF08043FDF7EAFF02460B46104619464D
S32D0000EA0839A3D3E90023FDF7B7FE02460B4610461946FEF793F90346BB6141F22C40C1F6FF70B96904F09AFFD4
S32D0000EA3041F24410C1F6FF7003F0DEFC044641F24010C1F6FF7003F0D7FC0346E3184FEAD372D3184FEA630339
S32D0000EA5841F22C40C1F6FF70194604F06BFF4FF001031C46B869B968FEF764FC0346002B02D14FF000031C46E7
S32D0000EA80FC7702F0A5FF02460B4610461946FEF759F903467B61F86879697A684FF0000300F04AF8034641F291
S32D0000EAA82C10C1F6FF70194600F076FCF86879697A684FF0010300F03BF8034641F22410C1F6FF70194600F06E
S32D0000EAD067FCFB7F002B7FF472AFFFF79DF907F12407BD4690BD00BF9A9999999999B93FA8D39477E8CEBA3FFA
S32D0000EAF880B582B000AF786041F24410C1F6FF7003F08AFC41F24010C1F6FF7003F084FC05A1D1E9000102F06D
S32D0000EB202BFF07F10807BD4680BD00BFAFF300809A9999999999B93F80B58CB000AFF860B9607A603B60FB687D
S32D0000EB483A6853F82230B8681946FEF74BF90346BB623B68002B0FD141F24410C1F6FF7003F046FC0246FB6807
S32D0000EB70396801F1080153F82130D31AFB620EE041F24010C1F6FF7003F036FC0246FB68396801F1080153F8A7
S32D0000EB982130D31AFB62F86AFEF7DAF903461846B96AFEF7DDFA03461846FDF791FD02460B461046194660A37A
S32D0000EBC0D3E90023FDF7DCFD02460B4610461946FEF7B8F803467B627868796AFEF706F903463B62FB683A68C0
S32D0000EBE802F1040253F822301846396AFEF7FCF803461946FB683A6802F1040243F82210386A5149FEF7F8F94A
S32D0000EC100346FB61FB683A6802F1040253F822301846FDF759FD02460B461046194646A3D3E90023FDF7A4FD43
S32D0000EC3802460B4610461946FEF780F80346BB61FB683A6802F1020253F82230386A1946FEF7C8F80346184698
S32D0000EC603C49FEF7CDF903467B6141F24410C1F6FF7003F0C1FB0146FB683A6802F1080243F822103B68002B41
S32D0000EC880DD141F24410C1F6FF7003F0B1FB0146FB683A6802F1080243F822100CE041F24010C1F6FF7003F0F6
S32D0000ECB0A3FB0146FB683A6802F1080243F82210FB683A6802F10202396A43F8221041F22C40C1F6FF70396870
S32D0000ECD804F030FEFB683A6802F1060253F822301846F969FEF780F8034641F22C40C1F6FF70194604F032FE91
S32D0000ED00FB683A6802F1060253F822301846F969FEF76EF803461946FB683A6802F1060243F82210FB683A6813
S32D0000ED2802F1060253F82230184607F13007BD4680BD00BFAFF30080A8D39477E8CEBA3F9A9999999999B93FB3
S32D0000ED500000403F0000803E80B582B000AF786039607B68012B3ED13A684FF6FF739A4239D141F21C10C1F65E
S32D0000ED78FF704FF0180102F05FFE41F22010C1F6FF704FF01F0103F05BFB41F22410C1F6FF704FF00001144AFB
S32D0000EDA000F056FA41F22C10C1F6FF704FF001010F4A00F04DFA41F23410C1F6FF704FF0070103F039FE41F25E
S32D0000EDC84010C1F6FF704FF0080102F059FF41F24410C1F6FF704FF0100102F051FF07F10807BD4680BD00BFD0
S32D0000EDF06666E64080B500AF4FF001004FF6FF71FFF7AAFF80BD00BF80B500AF41F2F862C1F6FF7241F21C1394
S32D0000EE18C1F6FF73D31A194641F21C13C1F6FF731A460B4610464FF000011A4606F02BFB80BD00BF07F094FB87
S32D0000EE4000F0B0F9FFF7E0FF07F066FB07F002FB07F09AFB00F00CF84FF0000041F24811C1F6FF71FEF7B8FAD1
S32D0000EE680346184606F0EAFA80B500AF4FF4E043C4F204034FF4E042C4F2040202F5805202F13802126842F42D
S32D0000EE90785203F5805303F138031A6000F02EF900F094F841F27833C1F6FF734FF058021A6041F27833C1F6D4
S32D0000EEB8FF731B684FF47A7202FB03F241F27433C1F6FF731A6041F27433C1F6FF731B681A464FF4E043C4F297
S32D0000EEE0040303F5825303F104031B6803F070634FEA136303F10103B2FBF3F31A4641F27C33C1F6FF731A60CD
S32D0000EF084FF4E043C4F204034FF4E042C4F2040202F5805202F13C02126842F0225203F5805303F13C031A6005
S32D0000EF304FF4E043C4F204034FF4E042C4F2040202F5805202F13002126842F0006203F5805303F130031A6007
S32D0000EF584FF45043C4F203034FF480721A614FF0640002F07DFB4FF45043C4F203034FF45042C4F2030252695F
S32D0000EF8022F010025A614FF45043C4F203034FF000021A604FF45043C4F203034FF010025A6103F0D3FA03F0E6
S32D0000EFA87BFB41F27030C1F6FF7002F0DDFB41F22C40C1F6FF7004F05BF941F2883002F0BBFC80BD80B400AF41
S32D0000EFD04FF48043C4F206034FF000025A704FF48043C4F206034FF098021A704FF48043C4F206039B79DBB2B5
S32D0000EFF803F01003002B0CBF00230123DBB2002BF0D14FF48043C4F206039B79DBB203F00C034FEA9303022BCB
S32D0000F0200CBF00230123DBB2002BEED14FF48043C4F206034FF018021A714FF48043C4F206034FF000025A71BF
S32D0000F0484FF4E043C4F2040303F5825303F104034FF00002C0F213121A604FF48043C4F206034FF054025A71F8
S32D0000F07000BF4FF48043C4F206039B79DBB203F02003002B14BF00230123DBB2002BF0D100BF4FF48043C4F2FE
S32D0000F09806039B79DBB203F04003002B14BF00230123DBB2002BF0D14FF48043C4F206034FF48042C4F2060224
S32D0000F0C01278D2B202F03F02D2B21A704FF48043C4F206039B79DBB203F00C034FEA9303032B0CBF002301235C
S32D0000F0E8DBB2002BEED14FF000031846BD4680BC704700BF80B400AF4FF44043C4F204034FF480725A634FF295
S32D0000F110C003C4F20F034FF2C002C4F20F02526942F400525A614FF2C003C4F20F034FF2C002C4F20F0212686E
S32D0000F13842F400521A604FF44043C4F2040340F20312C0F20A021A634FF46143CEF200034FF46142CEF2000250
S32D0000F160D2F8882142F08062C3F888214FF46143CEF200034FF46142CEF20002926842F080629A60BD4680BCFD
S32D0000F188704700BF80B483B000AF7860FEE700BF80B400AF00BEBD4680BC704780B400AF4FF0E0224CF2000355
S32D0000F1B0C0F20003C2F8083D4FF40053C4F205034CF22052DA814FF40053C4F205034DF62812DA814FF400535C
S32D0000F1D8C4F205034FF0D2021A80BD4680BC704780B500AF4FF44043C4F20403D3F8A03003F48053002B0CBFE6
S32D0000F20000230123DBB2002B1FD04FF44043C4F204034FF44042C4F20402D2F8A02022F48052C3F8A02041F2CE
S32D0000F228B440C1F6FF7006F08FF84FF2C003C4F20F034FF2C002C4F20F02126822F400521A6080BD00000000F2
S32D0000F25090B585B000AFF8600B467A60FB72FB68FA7A1A71FB684FF000025A714FF001031C4678682049FEF7C3
S32D0000F2787FF80346002B02D14FF000031C46E3B2002B02D01A4B7B6011E04FF001031C4678681849FEF758F818
S32D0000F2A00346002B02D14FF000031C46E3B2002B01D0124B7B607868FDF70EFA02460B46104619460AA3D3E9F9
S32D0000F2C80023FDF759FA02460B4610461946FDF735FD0246FB681A60FB68184607F11407BD4690BDAFF30080CF
S32D0000F2F0ABAAAAAAAAAA2040000040410000803F80B582B000AF78607B685B79002B10D07B684FF000025A71B4
S32D0000F3187B681B7941F27030C1F6FF7019464FF000024FF01E0302F069FA07F10807BD4680BD00BF80B584B093
S32D0000F34000AF786039603B687F2B03DD4FF07F03FB7309E03B6813F1800F03DA4FF08003FB7301E03B68FB7305
S32D0000F3687B685B79FA7B9A420FD07B68FA7B5A717B681A79FB7B41F27030C1F6FF7011461A464FF01E0302F07F
S32D0000F39039FA07F11007BD4680BD00BF00000000B0B584B000AF786039604FF001031C4638684D49FDF7C2FFC5
S32D0000F3B80346002B02D14FF000031C46E3B2002B02D0474B3B6011E04FF001031C4638684449FDF7CDFF0346B1
S32D0000F3E0002B02D14FF000031C46E3B2002B01D03E4B3B603868FDF76FF904460D467B681B681846FDF768F9F6
S32D0000F40802460B46104619464FF000024FF0804303F5B203FDF7DAFA02460B4620462946FDF7AAF902460B4632
S32D0000F43010461946FDF786FC03463B604FF001031C4638682A49FDF78DFF0346002B02D14FF000031C46E3B2E7
S32D0000F458002B14D03868FDF73BF902460B46104619461DA3D3E90023FDF786F902460B4610461946FDF71AFCF7
S32D0000F4800346FB6022E03868FDF726F902460B46104619464FF000024FF0804303F5C003FDF76EF902460B46C5
S32D0000F4A8104619464FF000024FF0804303F5B203FDF78CFA02460B4610461946FDF7F6FB0346FB607868F968FF
S32D0000F4D0FFF734FF07F11007BD46B0BDAFF3008052B81E85EB51F43F0000C8C20000C84200000000AFF3008072
S32D0000F4F880B485B000AF02460B46FA71BB71BB79002B07D141F24C13C1F6FF734FF000021A7006E041F24C1369
S32D0000F520C1F6FF734FF001021A704FF03803FB7341F24C13C1F6FF731A78FB7B1343FB734FF4C043C4F2060354
S32D0000F5484FF4C042C4F206029278D2B242F01002D2B29A704FF4C043C4F206034FF4C042C4F206029278D2B29C
S32D0000F57042F02002D2B29A704FF4C043C4F20603FA7B1A7107F11407BD4680BC704700BF80B483B000AF4FF069
S32D0000F59801037B6004E000BF7B6803F101037B607B68312BCCBF00230123DBB2002BF2D107F10C07BD4680BC37
S32D0000F5C0704700BF80B582B000AF02460B46FA71BB7141F24D13C1F6FF731B7818464FF00001FFF789FF4FF4B3
S32D0000F5E8C043C4F20603DB78DBB203F00203002B14BF00230123DBB2002BF0D14FF4C043C4F206034FF4C04253
S32D0000F610C4F20602D278D2B242F00202D2B2DA704FF4C043C4F20603FA791A714FF4C043C4F20603DB78DBB254
S32D0000F63803F00203002B14BF00230123DBB2002BF0D14FF4C043C4F206034FF4C042C4F20602D278D2B242F0E6
S32D0000F6600202D2B2DA704FF4C043C4F20603BA791A714FF4C043C4F20603DB78DBB203F00203002B14BF0023E9
S32D0000F6880123DBB2002BF0D14FF4C043C4F206034FF4C042C4F20602D278D2B242F00202D2B2DA704FF4C04397
S32D0000F6B0C4F206034FF4C042C4F206029278D2B222F02002D2B29A704FF4C043C4F206034FF4C042C4F2060212
S32D0000F6D89278D2B222F01002D2B29A70FFF754FF07F10807BD4680BD80B582B000AF0346FB71FB79184600F0A7
S32D0000F70043F807F10807BD4680BD00BF80B582B000AF02460B46FA71BB7100F011F8FB794FEA4303DBB218467D
S32D0000F728FFF7E2FFBB791846FFF7DEFF00F016F807F10807BD4680BD80B400AF4FF24003C4F20F034FF2400280
S32D0000F750C4F20F02926842F480129A60BD4680BC704700BF80B400AF4FF24003C4F20F034FF24002C4F20F02DA
S32D0000F778526842F480125A60BD4680BC704700BF80B485B000AF0346FB714FF00003BB7303E0FB7B03F10103E4
S32D0000F7A0FB734FF44043C4F20A03DB6A4FF00003002BF2D14FF44043C4F20A034FF44042C4F20A02D26A42F051
S32D0000F7C80042DA624FF44043C4F20A03FA795A6300BF4FF44043C4F20A03DB6A03F40033002B14BF00230123E0
S32D0000F7F0DBB2002BF1D14FF44043C4F20A039B6BBB73BB7B184607F11407BD4680BC704780B582B000AF4FF4BE
S32D0000F818E043C4F204034FF4E042C4F2040202F5805202F13002126842F4805203F5805303F130031A604FF4A2
S32D0000F8402043C4F204034FF480721A654FF24003C4F20F034FF24002C4F20F02526942F480125A61FFF77EFF7F
S32D0000F8684FF42043C4F204034FF400725A654FF42043C4F204034FF400729A654FF42043C4F204034FF400726C
S32D0000F890DA654FF44043C4F20A034FF44062C8F200021A604FF44043C4F20A034FF00502C3F60062DA604FF004
S32D0000F8B800037B6007E04FF0FF00FFF715FF7B6803F101037B607B68092BCCBF00230123DBB2002BEFD104A159
S32D0000F8E0D1E9000102F048F807F10807BD4680BD9A9999999999B93F90B486B000AFF860B9607A60FA684FF41E
S32D0000F9082043C4F206039A4214D14FF4E043C4F204034FF4E042C4F2040202F5805202F13402126842F4806226
S32D0000F93003F5805303F134031A6083E0FA684FF43043C4F206039A4214D14FF4E043C4F204034FF4E042C4F200
S32D0000F958040202F5805202F13402126842F4006203F5805303F134031A6067E0FA684FF44043C4F206039A42FD
S32D0000F98014D14FF4E043C4F204034FF4E042C4F2040202F5805202F13402126842F4805203F5805303F13403C6
S32D0000F9A81A604BE0FA684FF45043C4F206039A4214D14FF4E043C4F204034FF4E042C4F2040202F5805202F1D4
S32D0000F9D03402126842F4005203F5805303F134031A602FE0FA684FF42043C4F20E039A4214D14FF4E043C4F2A6
S32D0000F9F804034FF4E042C4F2040202F5805202F12802126842F4806203F5805303F128031A6013E04FF4E04384
S32D0000FA20C4F204034FF4E042C4F2040202F5805202F12802126842F4006203F5805303F128031A60FB68DB78C8
S32D0000FA48DBB223F00C03DAB2FB68DA70FB684FF000029A70BB684FF47A7202FB03F27B684FEA031392FBF3F311
S32D0000FA709CB2FB681B78DBB223F01F03FB75234603F4F8534FEA2323DBB203F01F03DAB2FB7D1343DAB2FB68DD
S32D0000FA981A70E2B2FB685A70BB684FF4FA4202FB03F27B684FEA031392FBF3F39AB2234619464FEAC121CB1AA8
S32D0000FAC04FEA43139BB2D3189CB2FB689B7ADBB223F01F03FB75E3B203F01F03DAB2FB7D1343DAB2FB689A725A
S32D0000FAE8FB68DB78DBB243F00C03DAB2FB68DA7007F11807BD4690BC704700BF80B483B000AF786000BF7B68C6
S32D0000FB101B79DBB203F02003002B14BF00230123DBB2002BF3D17B68DB79DBB2184607F10C07BD4680BC7047AC
S32D0000FB3880B483B000AF78600B46FB7000BF7B681B79DBB2DBB26FEA0303DBB24FEAD313DBB2002BF3D17B683B
S32D0000FB60FA78DA7107F10C07BD4680BC704700BF80B487B000AFF860B9607A60FB687B6107E0BB68DAB27B69DC
S32D0000FB881A707B6903F101037B617B68002B0CBF00230123DBB27A6802F1FF327A60002BEBD107F11C07BD467B
S32D0000FBB080BC704780B584B000AF786039607B681B6BFB60FA683B689A4264D07B681B79002B43D07B685A7868
S32D0000FBD87B6803F1340310461946FA684FF0010301F0ACFB0346002B0CBF00230123DBB2002B02D04FF00103AC
S32D0000FC004BE07B684FF000021A717B685A6A7B681B6AD218FB689A4220D97B68DB78FB7214E07B681B6AFA686A
S32D0000FC28D318FB607B685A787B6803F1340310461946FA684FF0010301F080FBFB7A03F1FF33FB72FB7A012B36
S32D0000FC5094BF00230123DBB2002BE2D13B68002B19D07B685A787B6803F13403104619463A684FF0010301F07C
S32D0000FC7857FA0346002B0CBF00230123DBB2002B02D04FF0010304E07B683A681A634FF00003184607F1100725
S32D0000FCA0BD4680BD80B584B000AF786078684FF00001FFF77FFF0346FB73FB7B002B40F0AE807B681B78032B18
S32D0000FCC840F095807B685B79002B00F090807B684FF000021A637B6803F1340318464FF000014FF40072FFF7EF
S32D0000FCF03FFF7B684FF0550283F832227B684FF0AA0283F833227B684FF0520283F834207B684FF0520283F88C
S32D0000FD1835207B684FF0610283F836207B684FF0410283F837207B684FF0720283F818227B684FF0720283F87F
S32D0000FD4019227B684FF0410283F81A227B684FF0610283F81B227B681B69DAB27B6883F81C227B681B699BB2BE
S32D0000FD684FEA2323DAB27B6883F81D227B681B694FEA1343DAB27B6883F81E227B681B694FEA1363DAB27B6820
S32D0000FD9083F81F227B68DB68DAB27B6883F820227B68DB689BB24FEA2323DAB27B6883F821227B68DB684FEAB9
S32D0000FDB81343DAB27B6883F822227B68DB684FEA1363DAB27B6883F823227B6859787B6803F134027B685B692D
S32D0000FDE0084611461A464FF0010301F0ABFA7B684FF000025A717B685B7818464FF000014FF0000201F084FB23
S32D0000FE080346002B0CBF00230123DBB2002B02D04FF00103FB73FB7B184607F11007BD4680BD00BF80B582B0C2
S32D0000FE3000AF78600B467B807B68002B08D07B681B78002B04D07B68DB887A889A4202D04FF009030FE07B6863
S32D0000FE585B78184601F0ECFB034603F00103DBB2002B02D04FF0030301E04FF00003184607F10807BD4680BD9C
S32D0000FE8080B586B000AF78607B681A687B689B8810461946FFF7CAFF0346FB75FB7D002B40F0C8807B689B79B8
S32D0000FEA803F02003002B00F0C1807B689B7903F04003002B20D07B681B6859787B6803F128027B689B69084605
S32D0000FED011461A464FF0010301F034FA0346002B0CBF00230123DBB2002B02D04FF00103A1E07B689B7923F00D
S32D0000FEF84003DAB27B689A717B681A687B68DB6910461946FFF752FE0346FB75FB7D002B40F08C807B681B6A98
S32D0000FF203B613B6903F10B033A6902F10B02127842F02002D2B21A703B6903F11C037A68D268D2B21A703B695D
S32D0000FF4803F11D037A68D26892B24FEA2222D2B21A703B6903F11E037A68D2684FEA1242D2B21A703B6903F184
S32D0000FF701F037A68D2684FEA1262D2B21A703B6903F11A037A681269D2B21A703B6903F11B037A68126992B2F3
S32D0000FF984FEA2222D2B21A703B6903F114037A6812694FEA1242D2B21A703B6903F115037A6812694FEA12426F
S32D0000FFC092B24FEA2222D2B21A704FF00003FB603B6903F11603FA68D2B21A703B6903F11703FA6892B24FEAF5
S32D0000FFE82222D2B21A703B6903F11803FA684FEA1242D2B21A703B6903F11903FA684FEA1262D2B21A707B6835
S32D000100109B7923F02003DAB27B689A717B681B684FF001021A717B681B681846FFF73AFE0346FB75FB7D184649
S32D0001003807F11807BD4680BD80B584B000AF78607868FFF719FF0346FB73FB7B002B03D17B684FF000021A609A
S32D00010060FB7B184607F11007BD4680BD80B588B000AF786039604FF080033B614FF00F03FB604FF0FF337B616A
S32D000100884FF00203FB612AE04FF00103BB611AE0FB69BA6902FB03F33A6802FB03F27B68D31ABB60BB68002BFF
S32D000100B009DBBA687B699A4205D2BB687B61FB693B61BB69FB60BB6903F10103BB61BB69102B8CBF00230123DD
S32D000100D8DBB2002BDCD1FB694FEA4303FB61FB69B3F5807F8CBF00230123DBB2002BCBD14FF48053C4F20B038A
S32D000101004FF48052C4F20B02D26A22F00802DA624FF48053C4F20B03DB6A1A464FF00F03CFF6F0731340BB61FD
S32D000101284FF48053C4F20B033A694FEA52024FEA02224FEA02424FEA1242F96801F1FF314FEA0111C9B211439A
S32D00010150BA690A4342F46022DA6203E04FF00A0001F0EEFB4FF48053C4F20B035B6A03F00803002B14BF002358
S32D000101780123DBB2002BEDD14FF48053C4F20B034FF48052C4F20B02D26A42F00802DA624FF48053C4F20B037E
S32D000101A04FF48052C4F20B02126B42F480121A6307F12007BD4680BD80B582B000AF786039607B684FF000028C
S32D000101C81A604FF48053C4F20B034FF40042C0F20012DA624FF48053C4F20B03DB6A03F08073002B0CBF002311
S32D000101F00123DBB2002BF1D14FF48053C4F20B034FF00002C3F8C0204FF48053C4F20B034FF481325A604FF4BF
S32D000102188053C4F20B034FF028029A624FF48053C4F20B034FF001125A643B689B6818464CF66041C0F2050132
S32D00010240FFF714FF4FF48053C4F20B035B6A03F00303002B0CBF00230123DBB2002BF1D14FF45043C4F20403A4
S32D0001026840F243421A604FF45043C4F2040340F243425A604FF45043C4F204034FF488629A604FF45043C4F2EC
S32D00010290040340F24342DA604FF45043C4F2040340F243421A614FF45043C4F2040340F243425A614FF4E04317
S32D000102B8C4F204034FF4E042C4F2040202F5805202F13002126842F4003203F5805303F130031A604FF48053E7
S32D000102E0C4F20B034FF6FF721A634FF48053C4F20B034FF0B302C0F27F025A634FF48053C4F20B034FF480524B
S32D00010308C4F20B02D26A42F00062DA624FF48053C4F20B03DB6A03F00063002B0CBF00230123DBB2002BF1D1CB
S32D000103304FF48053C4F20B035B6A03F48033002B0CBF00230123DBB2002B03D07B684FF001021A604FF48053D8
S32D00010358C4F20B034FF48052C4F20B02126B42F080021A634FF00003184607F10807BD4680BD00BF80B400AFA3
S32D000103804FF48053C4F20B035B6A1A4640F207331340002B0CBF00230123DBB21846BD4680BC704780B485B009
S32D000103A800AF78604FF48053C4F20B031B6B1A467B681340FB60FB68002B14BF00230123DBB2002BEED1FB68CC
S32D000103D0184607F11407BD4680BC704780B584B000AF78607B681B7803F03F0246F2C073C0F2010353F822303F
S32D000103F8FB60FB68002B06D17B681B78002B02D04FF0010330E14FF48053C4F20B034FF48052C4F20B02126B20
S32D0001042042F080021A634FF48053C4F20B035B6A03F00103DBB2002BF5D14FF48053C4F20B037A6852689A60F8
S32D00010448FB6823F44003FB607B685B784FEA835303F44003FA681343FB607B685B78022B03D1FB6843F40013F7
S32D00010470FB607B685B78042B16D1FB6803F44033B3F5003F08D1FB6823F44033FB60FB6843F44033FB6007E012
S32D00010498FB6823F44033FB60FB6843F40033FB604FF48053C4F20B034FF48052C4F20B0252684FEA02424FEAA3
S32D000104C012425A607B68DB68002B32D0FB6803F44033B3F5403F03D0FB6843F40013FB607B681B7A002B03D067
S32D000104E8FB6843F01003FB607B68DB68012B03D9FB6843F02003FB607B68DB68B3F1FF3F13D04FF48053C4F2E8
S32D000105100B034FF48052C4F20B02526811467A68D2684FEA02420A435A60FB6843F00203FB604FF48053C4F263
S32D000105380B034FF000021A604FF48053C4F20B03FA68DA604FF00100C0F20E00FFF726FF0346012B0CBF0023D7
S32D000105600123DBB2002B10D04FF48053C4F20B034FF48052C4F20B02126B42F4702242F001021A634FF00103C4
S32D0001058872E04FF48053C4F20B031B6B03F08003002B0CBF00230123DBB2002B0ED04FF48053C4F20B034FF42C
S32D000105B08052C4F20B02126B42F001121A634FF0010355E04FF48053C4F20B031B6B03F48033002B0CBF0023AD
S32D000105D80123DBB2002B0ED04FF48053C4F20B034FF48052C4F20B02126B42F001121A634FF0FF3338E0FB685D
S32D0001060003F44033002B25D04FF48053C4F20B031B691A467B681A61FB6803F44033B3F5803F17D14FF48053F3
S32D00010628C4F20B035B691A467B685A614FF48053C4F20B039B691A467B689A614FF48053C4F20B03DB691A4683
S32D000106507B68DA614FF48053C4F20B034FF48052C4F20B02126B42F001021A634FF00003184607F11007BD46CA
S32D0001067880BD00BF80B592B000AF786039604FF00003FB633B68BB6341F26413C1F6FF737B637B6B002B03D1C9
S32D000106A040F6012300F0A0BC41F26833C1F6FF733B633B6B002B03D140F60B2300F094BC3B6B1B68FB62FB6ABC
S32D000106C8002B03D140F60B2300F08ABC7B6841F20432934200F0388241F2043293421BD841F20132934238D02B
S32D000106F041F20132934207D8032B00F03D84092B00F0298400F066BC41F20232934200F0128241F20332934202
S32D0001071800F0BE8300F05ABC41F20732934200F04B8341F2073293420BD841F20532934200F0348241F2063208
S32D00010740934200F0108300F045BC41F20832934200F0B68241F20932934200F0C48200F039BC786B46F2B47139
S32D00010768C0F20101FFF724FD0346FB63FB6B002B40F030844FF0000387F847304FF0000387F82B304FF00003E5
S32D0001079087F82A304FF0000387F829304FF0000387F846304FF0000387F828304FF000033B724FF000037B72D9
S32D000107B84FF00003FB604FF000033B744FF000037B6107F108031846FFF704FE0346002B0CBF00230123DBB2FA
S32D000107E0002B03D04FF00103FB63FCE340F24C4001F0A6F84FF008033B724FF000037B724FF4D573FB604FF0D4
S32D0001080800033B744FF000037B6107F108031846FFF7E0FD03463B643B6C002B0BD1BA69FB689A4203D04FF0B3
S32D000108300103FB63D7E34FF0010387F846304FF0010387F8283097F82830002B00F0C6804FF037033B724FF07E
S32D0001085800037B724FF00003FB604FF000033B744FF000037B6107F108031846FFF7B2FD03463B643B6C002B15
S32D0001088003D04FF00103FB63ADE34FF069033B724FF000037B724FF00003FB604FF000033B744FF000037B6112
S32D000108A807F108031846FFF795FD0346002B0CBF00230123DBB2002B03D04FF00103FB638DE3BB6903F44013A8
S32D000108D0002B00F083804FF000033B644FF00A0001F02EF83B6C03F101033B644FF037033B724FF000037B7207
S32D000108F84FF00003FB604FF000033B744FF000037B6107F108031846FFF764FD0346002B0CBF00230123DBB25A
S32D00010920002B03D04FF00103FB6336E04FF069033B724FF000037B7297F84630002B05D04FF00003C4F230033C
S32D00010948FB6002E04FF44013FB604FF000033B744FF000037B6107F108031846FFF73AFD0346002B0CBF002353
S32D000109700123DBB2002B03D04FF00103FB630CE0BB69002B05DB3B6C632B02D84FF0010301E04FF00003002B4D
S32D00010998A0D1FB6B002B40F01F833B6C632B04D94FF0000387F8463014E04FF0010387F8473097F84630002BB6
S32D000109C00CD04FF0000387F84630BB6903F08043002B03D04FF0010387F8463097F82A30002B03D07B6B4FF0D9
S32D000109E807021A6097F82930002B03D07B6B4FF008021A6097F82B30002B03D07B6B4FF004021A6097F847303B
S32D00010A10002B0BD07B6B4FF002021A6097F84630002B03D07B6B4FF003021A6097F82B30002B0FD097F847306D
S32D00010A38002B0BD07B6B4FF005021A6097F84630002B03D07B6B4FF006021A604FF45043C4F204034FF0000265
S32D00010A601A604FF45043C4F204034FF000025A604FF45043C4F204034FF000029A604FF45043C4F204034FF0BF
S32D00010A880002DA604FF45043C4F204034FF000021A614FF45043C4F204034FF000025A61FB6A9A68FB6A5B6896
S32D00010AB010461946FFF7DAFA4FF45043C4F2040340F243421A604FF45043C4F2040340F243425A604FF45043FA
S32D00010AD8C4F204034FF488629A604FF45043C4F2040340F24342DA604FF45043C4F2040340F243421A614FF47F
S32D00010B005043C4F2040340F243425A614FF4E043C4F204034FF4E042C4F2040202F5805202F13002126842F422
S32D00010B28003203F5805303F130031A6057E2B86BFFF750FC03463B643B6C002B00F04E824FF00203FB6349E21B
S32D00010B50BB6B002B03D14FF00C03FB6343E24FF48053C4F20B03DB6A03F47F434FEA13234FEA43033B644FF4D8
S32D00010B788053C4F20B03DB6A03F0F0034FEA131303F101023B6C02FB03F33B64FB6A9A683B6CB2FBF3F2BB6B37
S32D00010BA01A6020E2BB6B002B03D14FF00C03FB6319E2BB6B1B68002B03D14FF00C03FB6311E2FFF7DBFB034682
S32D00010BC8002B14BF00230123DBB2002B70D04FF45043C4F204034FF000021A604FF45043C4F204034FF000029F
S32D00010BF05A604FF45043C4F204034FF000029A604FF45043C4F204034FF00002DA604FF45043C4F204034FF06E
S32D00010C1800021A614FF45043C4F204034FF000025A61FB6A9A68BB6B1B6810461946FFF719FA4FF45043C4F247
S32D00010C40040340F243421A604FF45043C4F2040340F243425A604FF45043C4F204034FF488629A604FF45043B9
S32D00010C68C4F2040340F24342DA604FF45043C4F2040340F243421A614FF45043C4F2040340F243425A614FF4A2
S32D00010C90E043C4F204034FF4E042C4F2040202F5805202F13002126842F4003203F5805303F130031A6096E181
S32D00010CB840F60A23FB6392E1BB6B002B03D14FF00C03FB638BE14FF48053C4F20B035B684FEAC3434FEAD34371
S32D00010CE0BA6B13607FE1BB6B002B03D14FF00C03FB6378E1FFF742FB0346002B14BF00230123DBB2002B2AD050
S32D00010D08BB6B1A6840F6FF739A4203D94FF00C03FB6364E14FF48053C4F20B034FF48052C4F20B02526822F441
S32D00010D30FE5222F03F025A604FF48053C4F20B034FF48052C4F20B0252681146BA6B12684FEAC2424FEAD2424B
S32D00010D580A435A6043E140F60A23FB633FE1BB6B002B03D14FF00C03FB6338E14FF48053C4F20B039B6A03F0A4
S32D00010D8006034FEA53033B643B6C002B04D1BB6B4FF000021A6026E13B6C012B04D1BB6B4FF001021A601EE1F5
S32D00010DA83B6C102B04D1BB6B4FF002021A6016E14FF00503FB6312E1BB6B002B03D14FF00C03FB630BE1FFF740
S32D00010DD0D5FA0346002B14BF00230123DBB2002B56D0BB6B1B68002B16D14FF48053C4F20B034FF48052C4F259
S32D00010DF80B02926A22F006029A624FF48053C4F20B034FF48052C4F20B02926A9A62E6E0BB6B1B68012B18D17F
S32D00010E204FF48053C4F20B034FF48052C4F20B02926A22F006029A624FF48053C4F20B034FF48052C4F20B022D
S32D00010E48926A42F002029A62C9E0BB6B1B68022B16D14FF48053C4F20B034FF48052C4F20B02926A22F006021F
S32D00010E709A624FF48053C4F20B034FF48052C4F20B02926A9A62AEE04FF00503FB63AAE040F60A23FB63A6E0A9
S32D00010E98BB6B002B03D14FF00C03FB639FE04FF48053C4F20B034FF48052C4F20B02D26A42F00062DA624FF4DA
S32D00010EC08053C4F20B03DB6A03F00063002B0CBF00230123DBB2002BF1D14FF48053C4F20B031B6B03F0800344
S32D00010EE8002B0CBF00230123DBB2002B0FD04FF48053C4F20B034FF48052C4F20B02126B42F080021A637B6BC1
S32D00010F104FF000021A604FF48053C4F20B035B6A03F48033002B0CBF00230123DBB2002B08D07B6B1B68002B4D
S32D00010F3808D17B6B4FF001021A6003E07B6B4FF000021A607B6B1A68BB6B1A6047E0BB6B4FF01C021A60BB6B39
S32D00010F6003F104034FF004021A60BB6B03F108034FF41E721A6036E04FF00200FFF712FA4FF48053C4F20B0303
S32D00010F881B6B03F4E003002B0CBF00230123DBB2002B0ED04FF48053C4F20B034FF48052C4F20B02126B42F4A2
S32D00010FB0E0021A634FF00403FB634FF48053C4F20B034FF48052C4F20B02126B42F032021A6308E040F60923B3
S32D00010FD8FB6304E000BF02E000BF00E000BFFB6B184607F14807BD4680BD00BF80B489B000AF786039607B682F
S32D000110007B6141F26413C1F6FF733B613B69002B02D14FF0000381E03B691B68022B0BD03B691B68032B07D0D6
S32D000110283B691B68072B03D03B691B68082B0DD14FF48053C4F20B035B6A03F00403002B0CBF00230123DBB2D2
S32D00011050002BF1D13B68FB6156E0FB69B3F5007F28BF4FF40073FB60FB6803F103034FEA9303BB613CE04FF425
S32D000110788053C4F20B031B6B03F4E003002B0CBF00230123DBB2002B10D04FF48053C4F20B034FF48052C4F2D8
S32D000110A00B02126B42F4E00242F020021A634FF0000333E04FF48053C4F20B035B6A03F40063002B14BF00233F
S32D000110C80123DBB2002BF1D14FF48053C4F20B031B6A1A467B691A607B6903F104037B61BB6903F1FF33BB611D
S32D000110F0BB69002B0CBF00230123DBB2002BBAD1FA69FB68D31AFB61FB69002B0CBF00230123DBB2002BA0D154
S32D000111184FF00103184607F12407BD4680BC704780B58EB000AFB9607A600246FA73BB7341F25013C1F6FF7337
S32D000111407B63FB7B002B02D1BB7B002B02D14FF0040381E040F20043C1F6FF731B78DBB203F00103DBB2002BE6
S32D0001116802D04FF0030373E0BB68002B02D14FF000036DE07B6B1B7B002B03D17B684FEA43237B60BB7B012B04
S32D000111902CD14FF011033B754FF000037B757B68BB614FF001033B77BB7B3B6207F1140341F202301946FFF76E
S32D000111B861FA0346002B14BF00230123DBB2002B3ED0B8684FF40071FFF710FF0346002B0CBF00230123DBB26D
S32D000111E0002B31D04FF00003BB732DE04FF012033B754FF000037B757B68BB614FF001033B77BB7B3B6207F142
S32D00011208140341F202301946FFF734FA0346002B14BF00230123DBB2002B11D0BB7B4FEA4323B8681946FFF747
S32D00011230E1FE0346002B0CBF00230123DBB2002B02D04FF00003BB73BB7B002B02D04FF0010301E04FF0000397
S32D00011258184607F13807BD4680BD00BF80B487B000AF786039607B68FB603B687B6155E07B69B3F5007F28BF64
S32D000112804FF400733B617A693B69D31A7B613B6903F103034FEA93033B613BE04FF48053C4F20B031B6B03F422
S32D000112A8E003002B0CBF00230123DBB2002B10D04FF48053C4F20B034FF48052C4F20B02126B42F4E00242F0E6
S32D000112D010021A634FF0FF332EE04FF48053C4F20B035B6A03F48063002B14BF00230123DBB2002BF1D14FF466
S32D000112F88053C4F20B03FA6812681A62FB6803F10403FB603B6903F1FF333B613B69002B0CBF00230123DBB24B
S32D00011320002BBBD17B69002B0CBF00230123DBB2002BA1D14FF00103184607F11C07BD4680BC704780B58EB077
S32D0001134800AFB9607A600246FA73BB7341F25013C1F6FF737B63FB7B002B02D1BB7B002B02D14FF00403CAE0BC
S32D0001137040F20043C1F6FF731B78DBB203F00103DBB2002B02D04FF00303BCE040F20043C1F6FF731B78DBB270
S32D0001139803F00403002B0CBF00230123DBB2002B02D04FF00203AAE0BB68002B02D14FF00003A4E07B6B1B7B34
S32D000113C0002B03D17B684FEA43237B60BB7B012B2CD14FF018033B754FF000037B757B68BB614FF000033B7714
S32D000113E8BB7B3B6207F1140341F202301946FFF741F90346002B14BF00230123DBB2002B3ED0B8684FF40071D8
S32D00011410FFF728FF0346002B0CBF00230123DBB2002B31D04FF00003BB732DE04FF019033B754FF000037B7597
S32D000114387B68BB614FF000033B77BB7B3B6207F1140341F202301946FFF714F90346002B14BF00230123DBB2CE
S32D00011460002B11D0BB7B4FEA4323B8681946FFF7F9FE0346002B0CBF00230123DBB2002B02D04FF00003BB7390
S32D000114884FF00D033B754FF000037B757B6B1B69BB614FF000033B774FF000033B6207F1140341F202301946D8
S32D000114B0FFF7E4F80346002B0CBF00230123DBB2002B02D04FF001031DE07A6A48F20803CFF6D9731340002B33
S32D000114D802D04FF0010312E07B6A03F4F853B3F5106F0CBF00230123DBB2002BC8D1BB7B002B02D04FF00103B7
S32D0001150001E04FF00003184607F13807BD4680BD80B58CB000AF0B463A600246FA71BB7141F25013C1F6FF731B
S32D00011528BB62FB79002B02D04FF004037AE04FF0010387F82F3040F20043C1F6FF731B78DBB203F00103DBB203
S32D00011550002B02D04FF0030368E0BB79032B5FD801A252F823F000BF791501008315010095150100A7150100FA
S32D000115784FF0000387F82F3052E0BB6A9A683B681A604FF0000387F82F3049E03B684FF400721A804FF0000331
S32D000115A087F82F3040E04FF009033B724FF000037B72BB6A1B69FB604FF000033B744FF000037B6107F10803E1
S32D000115C841F202301946FFF755F80346002B0CBF00230123DBB2002B02D04FF0010321E07B6A03F44003002B4F
S32D000115F011D13B6A4FEA934303F07F0303F101027B6A4FEA132303F0030303F1FF3302FA03F23B681A604FF00A
S32D00011618000387F82F3003E04FF0040387F82F3097F82F30184607F13007BD4680BD00BF80B483B000AF0346E2
S32D00011640FB71FB79002B02D04FF0010305E040F20043C1F6FF731B78DBB2184607F10C07BD4680BC704700BF9A
S32D0001166880B483B000AF78604FF4E043C4F204034FF4E042C4F2040202F5805202F13802126842F0010203F584
S32D00011690805303F138031A604FF00003C4F204037A689A604FF00003C4F204034FF005025A604FF00003C4F2DD
S32D000116B804034FF00002C4F20402126842F001021A6000BF4FF00003C4F204031B6803F08003002B14BF0023FE
S32D000116E00123DBB2002BF1D14FF00003C4F204034FF00002C4F20402126822F001021A6007F10C07BD4680BCEE
S32D00011708704700BF80B582B000AF786039607B68012B0AD13A684FF6FF739A4205D141F27030C1F6FF7000F0D7
S32D000117300FF807F10807BD4680BD00BF80B500AF4FF001004FF6FF71FFF7E0FF80BD00BF80B483B000AF7860E5
S32D000117587B684FF000021A707B68184607F10C07BD4680BC704700BF80B582B000AF78607B681B7883F00103D8
S32D00011780DBB2002B36D04FF4E043C4F2040303F5805303F128034FF400621A604FF45043C4F204034FF44072C8
S32D000117A81A624FF45043C4F204034FF440725A6241F27433C1F6FF731B684FEAD372D3184FEA63034FF4304011
S32D000117D0C4F20E0019464FF46142FEF78DF84FF0640000F0ADF87B684FF001021A704FF0010301E04FF000031A
S32D000117F8184607F10807BD4680BD00BF80B582B000AF7860F970BA707B704FF43040C4F20E004FF07F01FEF7C7
S32D000118208BF94FF43040C4F20E004FF00801FEF783F9FB784FF43040C4F20E001946FEF77BF9BB784FF430404D
S32D00011848C4F20E001946FEF773F97B784FF43040C4F20E001946FEF76BF94FF43040C4F20E004FF0FF01FEF720
S32D0001187063F907F10807BD4680BD00BF80B487B000AFF860B9607A60FA6844F6D353C1F26203A3FB02134FEABC
S32D000118989312BB68D3187B61FA6844F6D353C1F26203A3FB02134FEA93134FF47A7101FB03F3D31AFB60FB685B
S32D000118C04FEAC33244F6D353C1F26203A3FB02134FEA93127B68D3183B613B694FEAD3337A69D3187B613B6927
S32D000118E84FEA43434FEA53433B614FF45043C4F203031B681A467B699A4211D34FF45043C4F203031B681A4619
S32D000119107B699A420BD14FF45043C4F203035B681A463B699A4202D24FF0010301E04FF00003002BDDD107F1CC
S32D000119381C07BD4680BC704780B584B000AF78604FF45043C4F203031B68FB604FF45043C4F203035B68BB6097
S32D000119607B681846F968BA68FFF788FF07F11007BD4680BD0000000080B584B000AFC7E900014FF45043C4F273
S32D0001198803031B68FB604FF45043C4F203035B68BB60D7E900010AA3D3E90023FAF7ECFE02460B461046194666
S32D000119B0FBF7A8F903461846F968BA68FFF75EFF07F11007BD4680BD0000000000408F4080B584B000AF4FF43F
S32D000119D85043C4F203031B68FB604FF45043C4F203035B68BB60F868FAF750FE02460B46C7E90023B868FAF727
S32D00011A0049FE02460B46104619464FF000024FF0804303F56003FAF7DDFF02460B46D7E90001FAF7FBFC02462D
S32D00011A280B46C7E90023D7E900231046194607F11007BD4680BD00BF80B582B000AF78600B46FB70FB787868C8
S32D00011A50194600F007F87B68184607F10807BD4680BD00BF80B483B000AF78600B46FB707B68FA781A707B6866
S32D00011A781B781A4646F6C003C0F201039B5C042B00F2F98001A252F823F000BFA91A0100071B0100651B0100DF
S32D00011AA0C31B0100211C01004FF41043C4F204037A681278114646F60412C0F2010252F8212040F2031143F8D1
S32D00011AC822104FF47043C4F20F034FF47042C4F20F02526911467A681278104646F60412C0F2010252F82020DE
S32D00011AF002F01F024FF0010000FA02F26FEA02020A405A61BBE04FF42043C4F204037A681278114646F6041211
S32D00011B18C0F2010252F8212040F2031143F822104FF24003C4F20F034FF24002C4F20F02526911467A68127897
S32D00011B40104646F60412C0F2010252F8202002F01F024FF0010000FA02F26FEA02020A405A618CE04FF43043CA
S32D00011B68C4F204037A681278114646F60412C0F2010252F8212040F2031143F822104FF28003C4F20F034FF2BC
S32D00011B908002C4F20F02526911467A681278104646F60412C0F2010252F8202002F01F024FF0010000FA02F237
S32D00011BB86FEA02020A405A615DE04FF44043C4F204037A681278114646F60412C0F2010252F8212040F2031141
S32D00011BE043F822104FF2C003C4F20F034FF2C002C4F20F02526911467A681278104646F60412C0F2010252F8AE
S32D00011C08202002F01F024FF0010000FA02F26FEA02020A405A612EE04FF45043C4F204037A681278114646F62A
S32D00011C300412C0F2010252F8212040F2031143F822104FF47143C4F20F034FF47142C4F20F02526911467A680C
S32D00011C581278104646F60412C0F2010252F8202002F01F024FF0010000FA02F26FEA02020A405A6100BF07F192
S32D00011C800C07BD4680BC704780B584B000AF78600B46FB704FF00B03FB73FA78FB7B786811461A4600F0ECF872
S32D00011CA87B68184607F11007BD4680BD80B485B000AF78607B68A3F11003002B01DA03F11F034FEA6313FB60DD
S32D00011CD0FB68012B48D0022B00F08980002B40F0C9804FF46142CEF200024FF46143CEF20003D3F88031194647
S32D00011CF87B68A3F110004FF01F03C8F200030340002B05DA03F1FF3363F01F0303F101034FF0010000FA03F308
S32D00011D200B43C2F880314FF46142CEF200024FF46143CEF200031B6819467B68A3F110004FF01F03C8F2000302
S32D00011D480340002B05DA03F1FF3363F01F0303F101034FF0010000FA03F30B43136085E04FF46142CEF200028E
S32D00011D704FF46143CEF20003D3F8843119467B68A3F110004FF01F03C8F200030340002B05DA03F1FF3363F050
S32D00011D981F0303F101034FF0010000FA03F30B43C2F884314FF46142CEF200024FF46143CEF200035B681946A1
S32D00011DC07B68A3F110004FF01F03C8F200030340002B05DA03F1FF3363F01F0303F101034FF0010000FA03F33F
S32D00011DE80B43536042E04FF46142CEF200024FF46143CEF20003D3F8883119467B68A3F110004FF01F03C8F2D2
S32D00011E1000030340002B05DA03F1FF3363F01F0303F101034FF0010000FA03F30B43C2F888314FF46142CEF229
S32D00011E3800024FF46143CEF200039B6819467B68A3F110004FF01F03C8F200030340002B05DA03F1FF3363F002
S32D00011E601F0303F101034FF0010000FA03F30B43936000BF07F11407BD4680BC704700BF80B584B000AF786051
S32D00011E8813460A46FA70BB707B68FA781A70BB78FB737B681B781A4646F6C003C0F201039B5C042B00F2F68054
S32D00011EB001A252F823F000BFCD1E0100411F0100B51F01009D200100292001004FF41043C4F204037A6812785B
S32D00011ED8114646F60412C0F2010252F82110FA7B4FEA024202F4702242F4887242F0030243F821204FF47043AF
S32D00011F00C4F20F034FF47042C4F20F02526911467A681278104646F60412C0F2010252F8202002F01F024FF077
S32D00011F28010000FA02F26FEA02020A405A614FF06700FFF7BBFEADE04FF42043C4F204037A681278114646F6F5
S32D00011F500412C0F2010252F82110FA7B4FEA024202F4702242F4887242F0030243F821204FF24003C4F20F0373
S32D00011F784FF24002C4F20F02526911467A681278104646F60412C0F2010252F8202002F01F024FF0010000FA3E
S32D00011FA002F26FEA02020A405A614FF06800FFF781FE73E04FF43043C4F204037A681278114646F60412C0F213
S32D00011FC8010252F82110FA7B4FEA024202F4702242F4887242F0030243F821204FF28003C4F20F034FF28002C0
S32D00011FF0C4F20F02526911467A681278104646F60412C0F2010252F8202002F01F024FF0010000FA02F26FEAFC
S32D0001201802020A405A614FF06900FFF747FE39E04FF45043C4F204037A681278114646F60412C0F2010252F8ED
S32D000120402110FA7B4FEA024202F4702242F4887242F0030243F821204FF47143C4F20F034FF47142C4F20F0267
S32D00012068526911467A681278104646F60412C0F2010252F8202002F01F024FF0010000FA02F26FEA02020A40FC
S32D000120905A614FF06B00FFF70DFE00BF07F11007BD4680BDB0B48BB000AF46F20873C0F2010307F104041D4693
S32D000120B80FCD0FC495E80F0084E80F004FF000037B6248E04FF42043C4F20403D3F8A0301A467B6A4FEA8303FA
S32D000120E007F12800C31853F8243C4FF0010101FA03F31340002B0CBF00230123DBB2002B29D041F2A033C1F6FB
S32D00012108FF737A6A53F8223003F1010141F2A033C1F6FF737A6A43F822104FF42043C4F204034FF42042C4F281
S32D000121300402D2F8A02011467A6A4FEA820207F12800821852F8242C4FF0010000FA02F20A40C3F8A0207B6ACC
S32D0001215803F101037B627B6A072BCCBF00230123DBB2002BAED107F12C07BD46B0BC7047B0B489B000AF46F28E
S32D000121802873C0F2010307F104041D460FCD0FC495E8030084E803004FF00003FB6149E04FF43043C4F20403A4
S32D000121A8D3F8A0301A46FB694FEA830307F12000C31853F81C3C4FF0010101FA03F31340002B0CBF0023012392
S32D000121D0DBB2002B2AD0FB6903F1080241F2A033C1F6FF7353F8223003F1010141F2A033C1F6FF7343F822106E
S32D000121F84FF43043C4F204034FF43042C4F20402D2F8A0201146FA694FEA820207F12000821852F81C2C4FF050
S32D00012220010000FA02F20A40C3F8A020FB6903F10103FB61FB69052BCCBF00230123DBB2002BADD107F1240764
S32D00012248BD46B0BC704700BFB0B48DB000AF46F24073C0F201033C461D460FCD0FC40FCD0FC495E8070084E85E
S32D0001227007004FF00003FB6249E04FF41043C4F20403D3F8A0301A46FB6A4FEA830307F13000C31853F8303C44
S32D000122984FF0010101FA03F31340002B0CBF00230123DBB2002B2AD0FB6A03F10E0241F2A033C1F6FF7353F8C0
S32D000122C0223003F1010141F2A033C1F6FF7343F822104FF41043C4F204034FF41042C4F20402D2F8A020114686
S32D000122E8FA6A4FEA820207F13000821852F8302C4FF0010000FA02F20A40C3F8A020FB6A03F10103FB62FB6A2C
S32D000123100A2BCCBF00230123DBB2002BADD107F13407BD46B0BC7047B0B487B000AF46F26C73C0F201033C466F
S32D000123381D460FCD0FC42B6823604FF000037B6149E04FF45043C4F20403D3F8A0301A467B694FEA830307F1DE
S32D000123601800C31853F8183C4FF0010101FA03F31340002B0CBF00230123DBB2002B2AD07B6903F1190241F222
S32D00012388A033C1F6FF7353F8223003F1010141F2A033C1F6FF7343F822104FF45043C4F204034FF45042C4F2DD
S32D000123B00402D2F8A02011467A694FEA820207F11800821852F8182C4FF0010000FA02F20A40C3F8A0207B6968
S32D000123D803F101037B617B69042BCCBF00230123DBB2002BADD107F11C07BD46B0BC704780B483B000AF7860B8
S32D000124007B681B781A4641F2A033C1F6FF7353F82230184607F10C07BD4680BC704700BF80B483B000AF7860FF
S32D000124287B681B781A4641F2A033C1F6FF734FF0000143F8221007F10C07BD4680BC704780B483B000AF7860E4
S32D000124500B46FB707B68FA781A707B68184607F10C07BD4680BC704780B586B000AF78607B681B781A4646F67C
S32D000124788413C0F2010353F822303B617B681B781A4646F6E003C0F201039B5CFB733B69DBB203F01F03DAB2CD
S32D000124A041F29033C1F6FF731A723B69DBB203F01F03DAB241F29033C1F6FF735A72FB7B002B1ED14FF4304062
S32D000124C8C4F2030041F29031C1F6FF7100F04CFA4FF43043C4F203031B6803F08003002B14BF00230123DBB29E
S32D000124F0002BF1D14FF43043C4F203031B697B611DE04FF43040C4F20B0041F29031C1F6FF7100F02DFA4FF418
S32D000125183043C4F20B031B6803F08003002B14BF00230123DBB2002BF1D14FF43043C4F20B031B697B617B69E7
S32D00012540184607F11807BD4680BD00BF98B500AF41F28033C1F6FF734FF05C021A7041F28033C1F6FF734FF078
S32D0001256810025A7041F28033C1F6FF7341F234225A8041F28033C1F6FF7345F278629A8041F28033C1F6FF73AD
S32D000125904FF010029A7141F28033C1F6FF734FF00702DA7141F28033C1F6FF734FF4C022DA6041F28033C1F613
S32D000125B8FF734FF01F021A7241F28033C1F6FF734FF01F025A724FF43040C4F2030041F28031C1F6FF7100F0F4
S32D000125E0C7F94FF43040C4F20B0041F28031C1F6FF7100F0BDF94FF43040C4F20B0000F011F94FF43040C4F210
S32D00012608030000F00BF94FF43040C4F20B0041F28031C1F6FF7100F0A7F94FF43040C4F2030041F28031C1F696
S32D00012630FF7100F09DF941F29032C1F6FF7241F28033C1F6FF7314460FCB84E80F0041F29033C1F6FF734FF04C
S32D000126585C021A7041F29033C1F6FF734FF00402DA7198BD80B500AF41F22443C1F6FF731B6803F1010241F213
S32D000126802443C1F6FF731A6000F04CF84FF4E043C4F203034FF00102C3F80C2180BD00BF80B500AF4FF4E0435B
S32D000126A8C4F203034FF001021A6048F2A060C0F2010000F023F84FF4E043C4F203034FF00302C3F808214FF406
S32D000126D06143CEF200034FF46142CEF20002D2F8882142F01002C3F888214FF46143CEF200034FF46142CEF261
S32D000126F80002926842F010029A6080BD80B483B000AF78604FF4E043C4F203037A68C3F8002107F10C07BD4660
S32D0001272080BC704780B584B000AF41F22043C1F6FF731B68FB6029E0FB685B78FB71FB689B68184600F02EF85D
S32D000127480346BB71BB79002B19D0FB685B68012B15DDFB689B681B69BB6008E0BB685B6803F10102BB685A60BA
S32D00012770BB681B69BB60BB68002B0CBF00230123DBB2002BEED1FB68DB68FB60FB68002B0CBF00230123DBB273
S32D00012798002BCDD107F11007BD4680BD80B584B000AF78607868FFF75BFE0346FB607B689B695B78FB72FB7A9B
S32D000127C0002B12D17B68DA68FB689A420DDA7B689B694FF001025A707B685B6803F101027B685A604FF0010321
S32D000127E817E0FB7A012B12D17B689A68FB689A420DDD7B689B694FF000025A707B685B6803F101027B685A600D
S32D000128104FF0010301E04FF00003184607F11007BD4680BD80B485B000AF78607B681B6A23F040027B681A627A
S32D000128387B685B6A23F00B027B685A627B685B6A43F007027B685A627B685B6A43F080027B685A627B681B6825
S32D0001286003F08003002B14BF00230123DBB2002BF4D17B685B6A03F04003002B0CBF00230123DBB2002B02D06C
S32D000128884FF0010369E04FF00003FB817B68DB6CFB817B689B6C9AB2FB89D318FB817B685B6C9AB2FB89D318AB
S32D000128B0FB817B681B6C9AB2FB89D318FB817B68DB6B9AB2FB89D318FB817B689B6B9AB2FB89D318FB81FB89D8
S32D000128D84FEA5303FB81FB896FEA43436FEA5343FB81FA897B68DA624FF00003FB817B68DB6EFB817B689B6E04
S32D000129009AB2FB89D318FB817B685B6E9AB2FB89D318FB817B681B6E9AB2FB89D318FB817B68DB6D9AB2FB89F0
S32D00012928D318FB817B689B6D9AB2FB89D318FB81FB894FEA5303FB81FB896FEA43436FEA5343FB81FA897B6834
S32D000129501A637B685B6A23F080027B685A624FF00003184607F11407BD4680BC704700BF80B483B000AF7860A9
S32D0001297839603B681B781A467B689A603B685B781A467B68DA603B685B881A467B689A613B689B881A467B6864
S32D000129A0DA613B689B791A467B681A623B68DB791A467B685A623B68DA687B681A653B681B7A1A467B681A6025
S32D000129C83B685B7A1A467B685A6007F10C07BD4680BC704780B483B000AF78607B68184607F10C07BD4680BCF1
S32D000129F0704700BF80B582B000AF786039607B68012B0AD13A684FF6FF739A4205D141F22840C1F6FF70FFF70F
S32D00012A18E1FF07F10807BD4680BD00BF80B500AF4FF001004FF6FF71FFF7E0FF80BD00BF80B483B000AF786011
S32D00012A400B46FB707B68FA781A707B684FF4FA725A807B6840F6C4129A807B68044A9A607B68184607F10C07E0
S32D00012A68BD4680BC704700BF000080BF80B483B000AF786039603A6840F2F3139A4204DD3A6840F6C4139A42A2
S32D00012A9004DD7B684FF4FA725A8003E03B689AB27B685A8007F10C07BD4680BC704700BF80B483B000AF78608D
S32D00012AB839603A6840F2F3139A4204DD3A6840F6C4139A4204DD7B6840F6C4129A8003E03B689AB27B689A807B
S32D00012AE007F10C07BD4680BC704700BF00000000F0B585B000AF786039604FF001031C4638684B49FAF71AFC2D
S32D00012B080346002B02D14FF000031C46E3B2002B01D0454B3B604FF001031C4638684349FAF726FC0346002B9F
S32D00012B3002D14FF000031C46E3B2002B01D03D4B3B607B689B6818463968FAF7EDFB0346002B64D17B683A685F
